Archive member included to satisfy reference by file (symbol)

c:/program files (x86)/atmel/studio/7.0/toolchain/avr8/avr8-gnu-toolchain/bin/../lib/gcc/avr/5.4.0/../../../../avr/lib/avr5\libm.a(divsf3.o)
                              EVT_test_fixture.o (__divsf3)
c:/program files (x86)/atmel/studio/7.0/toolchain/avr8/avr8-gnu-toolchain/bin/../lib/gcc/avr/5.4.0/../../../../avr/lib/avr5\libm.a(divsf3x.o)
                              c:/program files (x86)/atmel/studio/7.0/toolchain/avr8/avr8-gnu-toolchain/bin/../lib/gcc/avr/5.4.0/../../../../avr/lib/avr5\libm.a(divsf3.o) (__divsf3x)
c:/program files (x86)/atmel/studio/7.0/toolchain/avr8/avr8-gnu-toolchain/bin/../lib/gcc/avr/5.4.0/../../../../avr/lib/avr5\libm.a(fixsfsi.o)
                              EVT_test_fixture.o (__fixsfsi)
c:/program files (x86)/atmel/studio/7.0/toolchain/avr8/avr8-gnu-toolchain/bin/../lib/gcc/avr/5.4.0/../../../../avr/lib/avr5\libm.a(fixunssfsi.o)
                              c:/program files (x86)/atmel/studio/7.0/toolchain/avr8/avr8-gnu-toolchain/bin/../lib/gcc/avr/5.4.0/../../../../avr/lib/avr5\libm.a(fixsfsi.o) (__fixunssfsi)
c:/program files (x86)/atmel/studio/7.0/toolchain/avr8/avr8-gnu-toolchain/bin/../lib/gcc/avr/5.4.0/../../../../avr/lib/avr5\libm.a(floatsisf.o)
                              EVT_test_fixture.o (__floatsisf)
c:/program files (x86)/atmel/studio/7.0/toolchain/avr8/avr8-gnu-toolchain/bin/../lib/gcc/avr/5.4.0/../../../../avr/lib/avr5\libm.a(fp_inf.o)
                              c:/program files (x86)/atmel/studio/7.0/toolchain/avr8/avr8-gnu-toolchain/bin/../lib/gcc/avr/5.4.0/../../../../avr/lib/avr5\libm.a(divsf3x.o) (__fp_inf)
c:/program files (x86)/atmel/studio/7.0/toolchain/avr8/avr8-gnu-toolchain/bin/../lib/gcc/avr/5.4.0/../../../../avr/lib/avr5\libm.a(fp_nan.o)
                              c:/program files (x86)/atmel/studio/7.0/toolchain/avr8/avr8-gnu-toolchain/bin/../lib/gcc/avr/5.4.0/../../../../avr/lib/avr5\libm.a(divsf3x.o) (__fp_nan)
c:/program files (x86)/atmel/studio/7.0/toolchain/avr8/avr8-gnu-toolchain/bin/../lib/gcc/avr/5.4.0/../../../../avr/lib/avr5\libm.a(fp_pscA.o)
                              c:/program files (x86)/atmel/studio/7.0/toolchain/avr8/avr8-gnu-toolchain/bin/../lib/gcc/avr/5.4.0/../../../../avr/lib/avr5\libm.a(divsf3x.o) (__fp_pscA)
c:/program files (x86)/atmel/studio/7.0/toolchain/avr8/avr8-gnu-toolchain/bin/../lib/gcc/avr/5.4.0/../../../../avr/lib/avr5\libm.a(fp_pscB.o)
                              c:/program files (x86)/atmel/studio/7.0/toolchain/avr8/avr8-gnu-toolchain/bin/../lib/gcc/avr/5.4.0/../../../../avr/lib/avr5\libm.a(divsf3x.o) (__fp_pscB)
c:/program files (x86)/atmel/studio/7.0/toolchain/avr8/avr8-gnu-toolchain/bin/../lib/gcc/avr/5.4.0/../../../../avr/lib/avr5\libm.a(fp_round.o)
                              c:/program files (x86)/atmel/studio/7.0/toolchain/avr8/avr8-gnu-toolchain/bin/../lib/gcc/avr/5.4.0/../../../../avr/lib/avr5\libm.a(divsf3.o) (__fp_round)
c:/program files (x86)/atmel/studio/7.0/toolchain/avr8/avr8-gnu-toolchain/bin/../lib/gcc/avr/5.4.0/../../../../avr/lib/avr5\libm.a(fp_split3.o)
                              c:/program files (x86)/atmel/studio/7.0/toolchain/avr8/avr8-gnu-toolchain/bin/../lib/gcc/avr/5.4.0/../../../../avr/lib/avr5\libm.a(divsf3x.o) (__fp_split3)
c:/program files (x86)/atmel/studio/7.0/toolchain/avr8/avr8-gnu-toolchain/bin/../lib/gcc/avr/5.4.0/../../../../avr/lib/avr5\libm.a(fp_zero.o)
                              c:/program files (x86)/atmel/studio/7.0/toolchain/avr8/avr8-gnu-toolchain/bin/../lib/gcc/avr/5.4.0/../../../../avr/lib/avr5\libm.a(fixunssfsi.o) (__fp_zero)
C:\Users\kphalak\Documents\Atmel Studio\7.0\EVT_test_fixture\EVT_test_fixture\ArduinoCore\Release\libArduinoCore.a(HardwareSerial.o)
                              EVT_test_fixture.o (_ZN14HardwareSerial5beginEmh)
C:\Users\kphalak\Documents\Atmel Studio\7.0\EVT_test_fixture\EVT_test_fixture\ArduinoCore\Release\libArduinoCore.a(HardwareSerial0.o)
                              EVT_test_fixture.o (Serial)
C:\Users\kphalak\Documents\Atmel Studio\7.0\EVT_test_fixture\EVT_test_fixture\ArduinoCore\Release\libArduinoCore.a(main.o)
                              C:/Program Files (x86)/Atmel/Studio/7.0/Packs/atmel/ATmega_DFP/1.2.150/gcc/dev/atmega328p/avr5/crtatmega328p.o (main)
C:\Users\kphalak\Documents\Atmel Studio\7.0\EVT_test_fixture\EVT_test_fixture\ArduinoCore\Release\libArduinoCore.a(Print.o)
                              C:\Users\kphalak\Documents\Atmel Studio\7.0\EVT_test_fixture\EVT_test_fixture\ArduinoCore\Release\libArduinoCore.a(HardwareSerial.o) (_ZN5Print5writeEPKhj)
C:\Users\kphalak\Documents\Atmel Studio\7.0\EVT_test_fixture\EVT_test_fixture\ArduinoCore\Release\libArduinoCore.a(wiring.o)
                              EVT_test_fixture.o (delay)
C:\Users\kphalak\Documents\Atmel Studio\7.0\EVT_test_fixture\EVT_test_fixture\ArduinoCore\Release\libArduinoCore.a(wiring_digital.o)
                              EVT_test_fixture.o (pinMode)
C:\Users\kphalak\Documents\Atmel Studio\7.0\EVT_test_fixture\EVT_test_fixture\ArduinoCore\Release\libArduinoCore.a(SoftwareSerial.o)
                              EVT_test_fixture.o (_ZN14SoftwareSerial5writeEh)
C:\Users\kphalak\Documents\Atmel Studio\7.0\EVT_test_fixture\EVT_test_fixture\ArduinoCore\Release\libArduinoCore.a(abi.o)
                              C:\Users\kphalak\Documents\Atmel Studio\7.0\EVT_test_fixture\EVT_test_fixture\ArduinoCore\Release\libArduinoCore.a(Print.o) (__cxa_pure_virtual)
C:\Users\kphalak\Documents\Atmel Studio\7.0\EVT_test_fixture\EVT_test_fixture\ArduinoCore\Release\libArduinoCore.a(hooks.o)
                              C:\Users\kphalak\Documents\Atmel Studio\7.0\EVT_test_fixture\EVT_test_fixture\ArduinoCore\Release\libArduinoCore.a(wiring.o) (yield)
c:/program files (x86)/atmel/studio/7.0/toolchain/avr8/avr8-gnu-toolchain/bin/../lib/gcc/avr/5.4.0/../../../../avr/lib/avr5\libm.a(addsf3.o)
                              C:\Users\kphalak\Documents\Atmel Studio\7.0\EVT_test_fixture\EVT_test_fixture\ArduinoCore\Release\libArduinoCore.a(Print.o) (__subsf3)
c:/program files (x86)/atmel/studio/7.0/toolchain/avr8/avr8-gnu-toolchain/bin/../lib/gcc/avr/5.4.0/../../../../avr/lib/avr5\libm.a(addsf3x.o)
                              c:/program files (x86)/atmel/studio/7.0/toolchain/avr8/avr8-gnu-toolchain/bin/../lib/gcc/avr/5.4.0/../../../../avr/lib/avr5\libm.a(addsf3.o) (__addsf3x)
c:/program files (x86)/atmel/studio/7.0/toolchain/avr8/avr8-gnu-toolchain/bin/../lib/gcc/avr/5.4.0/../../../../avr/lib/avr5\libm.a(cmpsf2.o)
                              C:\Users\kphalak\Documents\Atmel Studio\7.0\EVT_test_fixture\EVT_test_fixture\ArduinoCore\Release\libArduinoCore.a(Print.o) (__ltsf2)
c:/program files (x86)/atmel/studio/7.0/toolchain/avr8/avr8-gnu-toolchain/bin/../lib/gcc/avr/5.4.0/../../../../avr/lib/avr5\libm.a(fp_cmp.o)
                              c:/program files (x86)/atmel/studio/7.0/toolchain/avr8/avr8-gnu-toolchain/bin/../lib/gcc/avr/5.4.0/../../../../avr/lib/avr5\libm.a(cmpsf2.o) (__fp_cmp)
c:/program files (x86)/atmel/studio/7.0/toolchain/avr8/avr8-gnu-toolchain/bin/../lib/gcc/avr/5.4.0/../../../../avr/lib/avr5\libm.a(gesf2.o)
                              C:\Users\kphalak\Documents\Atmel Studio\7.0\EVT_test_fixture\EVT_test_fixture\ArduinoCore\Release\libArduinoCore.a(Print.o) (__gtsf2)
c:/program files (x86)/atmel/studio/7.0/toolchain/avr8/avr8-gnu-toolchain/bin/../lib/gcc/avr/5.4.0/../../../../avr/lib/avr5\libm.a(mulsf3.o)
                              C:\Users\kphalak\Documents\Atmel Studio\7.0\EVT_test_fixture\EVT_test_fixture\ArduinoCore\Release\libArduinoCore.a(Print.o) (__mulsf3)
c:/program files (x86)/atmel/studio/7.0/toolchain/avr8/avr8-gnu-toolchain/bin/../lib/gcc/avr/5.4.0/../../../../avr/lib/avr5\libm.a(mulsf3x.o)
                              c:/program files (x86)/atmel/studio/7.0/toolchain/avr8/avr8-gnu-toolchain/bin/../lib/gcc/avr/5.4.0/../../../../avr/lib/avr5\libm.a(mulsf3.o) (__mulsf3x)
c:/program files (x86)/atmel/studio/7.0/toolchain/avr8/avr8-gnu-toolchain/bin/../lib/gcc/avr/5.4.0/../../../../avr/lib/avr5\libm.a(unordsf2.o)
                              C:\Users\kphalak\Documents\Atmel Studio\7.0\EVT_test_fixture\EVT_test_fixture\ArduinoCore\Release\libArduinoCore.a(Print.o) (__unordsf2)
c:/program files (x86)/atmel/studio/7.0/toolchain/avr8/avr8-gnu-toolchain/bin/../lib/gcc/avr/5.4.0/avr5\libgcc.a(_divmodhi4.o)
                              C:\Users\kphalak\Documents\Atmel Studio\7.0\EVT_test_fixture\EVT_test_fixture\ArduinoCore\Release\libArduinoCore.a(SoftwareSerial.o) (__divmodhi4)
c:/program files (x86)/atmel/studio/7.0/toolchain/avr8/avr8-gnu-toolchain/bin/../lib/gcc/avr/5.4.0/avr5\libgcc.a(_udivmodsi4.o)
                              C:\Users\kphalak\Documents\Atmel Studio\7.0\EVT_test_fixture\EVT_test_fixture\ArduinoCore\Release\libArduinoCore.a(HardwareSerial.o) (__udivmodsi4)
c:/program files (x86)/atmel/studio/7.0/toolchain/avr8/avr8-gnu-toolchain/bin/../lib/gcc/avr/5.4.0/avr5\libgcc.a(_divmodsi4.o)
                              C:\Users\kphalak\Documents\Atmel Studio\7.0\EVT_test_fixture\EVT_test_fixture\ArduinoCore\Release\libArduinoCore.a(SoftwareSerial.o) (__divmodsi4)
c:/program files (x86)/atmel/studio/7.0/toolchain/avr8/avr8-gnu-toolchain/bin/../lib/gcc/avr/5.4.0/avr5\libgcc.a(_negsi2.o)
                              c:/program files (x86)/atmel/studio/7.0/toolchain/avr8/avr8-gnu-toolchain/bin/../lib/gcc/avr/5.4.0/avr5\libgcc.a(_divmodsi4.o) (__negsi2)
c:/program files (x86)/atmel/studio/7.0/toolchain/avr8/avr8-gnu-toolchain/bin/../lib/gcc/avr/5.4.0/avr5\libgcc.a(_exit.o)
                              C:/Program Files (x86)/Atmel/Studio/7.0/Packs/atmel/ATmega_DFP/1.2.150/gcc/dev/atmega328p/avr5/crtatmega328p.o (exit)
c:/program files (x86)/atmel/studio/7.0/toolchain/avr8/avr8-gnu-toolchain/bin/../lib/gcc/avr/5.4.0/avr5\libgcc.a(_tablejump2.o)
                              EVT_test_fixture.o (__tablejump2__)
c:/program files (x86)/atmel/studio/7.0/toolchain/avr8/avr8-gnu-toolchain/bin/../lib/gcc/avr/5.4.0/avr5\libgcc.a(_copy_data.o)
                              EVT_test_fixture.o (__do_copy_data)
c:/program files (x86)/atmel/studio/7.0/toolchain/avr8/avr8-gnu-toolchain/bin/../lib/gcc/avr/5.4.0/avr5\libgcc.a(_clear_bss.o)
                              EVT_test_fixture.o (__do_clear_bss)
c:/program files (x86)/atmel/studio/7.0/toolchain/avr8/avr8-gnu-toolchain/bin/../lib/gcc/avr/5.4.0/avr5\libgcc.a(_ctors.o)
                              EVT_test_fixture.o (__do_global_ctors)
c:/program files (x86)/atmel/studio/7.0/toolchain/avr8/avr8-gnu-toolchain/bin/../lib/gcc/avr/5.4.0/avr5\libgcc.a(_dtors.o)
                              EVT_test_fixture.o (__do_global_dtors)
c:/program files (x86)/atmel/studio/7.0/toolchain/avr8/avr8-gnu-toolchain/bin/../lib/gcc/avr/5.4.0/avr5\libgcc.a(_udivmodhi4.o)
                              c:/program files (x86)/atmel/studio/7.0/toolchain/avr8/avr8-gnu-toolchain/bin/../lib/gcc/avr/5.4.0/avr5\libgcc.a(_divmodhi4.o) (__udivmodhi4)
c:/program files (x86)/atmel/studio/7.0/toolchain/avr8/avr8-gnu-toolchain/bin/../lib/gcc/avr/5.4.0/../../../../avr/lib/avr5\libc.a(abort.o)
                              C:\Users\kphalak\Documents\Atmel Studio\7.0\EVT_test_fixture\EVT_test_fixture\ArduinoCore\Release\libArduinoCore.a(abi.o) (abort)

Discarded input sections

 .data          0x00000000        0x0 C:/Program Files (x86)/Atmel/Studio/7.0/Packs/atmel/ATmega_DFP/1.2.150/gcc/dev/atmega328p/avr5/crtatmega328p.o
 .bss           0x00000000        0x0 C:/Program Files (x86)/Atmel/Studio/7.0/Packs/atmel/ATmega_DFP/1.2.150/gcc/dev/atmega328p/avr5/crtatmega328p.o
 .group         0x00000000        0x8 EVT_test_fixture.o
 .group         0x00000000        0x8 EVT_test_fixture.o
 .text          0x00000000        0x0 EVT_test_fixture.o
 .data          0x00000000        0x0 EVT_test_fixture.o
 .bss           0x00000000        0x0 EVT_test_fixture.o
 .text._Z8ShowText6String
                0x00000000       0x28 EVT_test_fixture.o
 .text          0x00000000        0x0 c:/program files (x86)/atmel/studio/7.0/toolchain/avr8/avr8-gnu-toolchain/bin/../lib/gcc/avr/5.4.0/../../../../avr/lib/avr5\libm.a(divsf3.o)
 .data          0x00000000        0x0 c:/program files (x86)/atmel/studio/7.0/toolchain/avr8/avr8-gnu-toolchain/bin/../lib/gcc/avr/5.4.0/../../../../avr/lib/avr5\libm.a(divsf3.o)
 .bss           0x00000000        0x0 c:/program files (x86)/atmel/studio/7.0/toolchain/avr8/avr8-gnu-toolchain/bin/../lib/gcc/avr/5.4.0/../../../../avr/lib/avr5\libm.a(divsf3.o)
 .text          0x00000000        0x0 c:/program files (x86)/atmel/studio/7.0/toolchain/avr8/avr8-gnu-toolchain/bin/../lib/gcc/avr/5.4.0/../../../../avr/lib/avr5\libm.a(divsf3x.o)
 .data          0x00000000        0x0 c:/program files (x86)/atmel/studio/7.0/toolchain/avr8/avr8-gnu-toolchain/bin/../lib/gcc/avr/5.4.0/../../../../avr/lib/avr5\libm.a(divsf3x.o)
 .bss           0x00000000        0x0 c:/program files (x86)/atmel/studio/7.0/toolchain/avr8/avr8-gnu-toolchain/bin/../lib/gcc/avr/5.4.0/../../../../avr/lib/avr5\libm.a(divsf3x.o)
 .text          0x00000000        0x0 c:/program files (x86)/atmel/studio/7.0/toolchain/avr8/avr8-gnu-toolchain/bin/../lib/gcc/avr/5.4.0/../../../../avr/lib/avr5\libm.a(fixsfsi.o)
 .data          0x00000000        0x0 c:/program files (x86)/atmel/studio/7.0/toolchain/avr8/avr8-gnu-toolchain/bin/../lib/gcc/avr/5.4.0/../../../../avr/lib/avr5\libm.a(fixsfsi.o)
 .bss           0x00000000        0x0 c:/program files (x86)/atmel/studio/7.0/toolchain/avr8/avr8-gnu-toolchain/bin/../lib/gcc/avr/5.4.0/../../../../avr/lib/avr5\libm.a(fixsfsi.o)
Memory Configuration

Name             Origin             Length             Attributes
text             0x00000000         0x00020000         xr
data             0x00800060         0x0000ffa0         rw !x
eeprom           0x00810000         0x00010000         rw !x
fuse             0x00820000         0x00000003         rw !x
lock             0x00830000         0x00000400         rw !x
signature        0x00840000         0x00000400         rw !x
user_signatures  0x00850000         0x00000400         rw !x
*default*        0x00000000         0xffffffff

Linker script and memory map

Address of section .data set to 0x800100
LOAD C:/Program Files (x86)/Atmel/Studio/7.0/Packs/atmel/ATmega_DFP/1.2.150/gcc/dev/atmega328p/avr5/crtatmega328p.o
LOAD EVT_test_fixture.o
START GROUP
LOAD c:/program files (x86)/atmel/studio/7.0/toolchain/avr8/avr8-gnu-toolchain/bin/../lib/gcc/avr/5.4.0/../../../../avr/lib/avr5\libm.a
LOAD C:\Users\kphalak\Documents\Atmel Studio\7.0\EVT_test_fixture\EVT_test_fixture\ArduinoCore\Release\libArduinoCore.a
END GROUP
LOAD c:/program files (x86)/atmel/studio/7.0/toolchain/avr8/avr8-gnu-toolchain/bin/../lib/gcc/avr/5.4.0/avr5\libgcc.a
LOAD c:/program files (x86)/atmel/studio/7.0/toolchain/avr8/avr8-gnu-toolchain/bin/../lib/gcc/avr/5.4.0/../../../../avr/lib/avr5\libm.a
START GROUP
LOAD c:/program files (x86)/atmel/studio/7.0/toolchain/avr8/avr8-gnu-toolchain/bin/../lib/gcc/avr/5.4.0/avr5\libgcc.a
LOAD c:/program files (x86)/atmel/studio/7.0/toolchain/avr8/avr8-gnu-toolchain/bin/../lib/gcc/avr/5.4.0/../../../../avr/lib/avr5\libm.a
LOAD c:/program files (x86)/atmel/studio/7.0/toolchain/avr8/avr8-gnu-toolchain/bin/../lib/gcc/avr/5.4.0/../../../../avr/lib/avr5\libc.a
LOAD C:/Program Files (x86)/Atmel/Studio/7.0/Packs/atmel/ATmega_DFP/1.2.150/gcc/dev/atmega328p/avr5\libatmega328p.a
END GROUP
                0x00020000                __TEXT_REGION_LENGTH__ = DEFINED (__TEXT_REGION_LENGTH__)?__TEXT_REGION_LENGTH__:0x20000
                0x0000ffa0                __DATA_REGION_LENGTH__ = DEFINED (__DATA_REGION_LENGTH__)?__DATA_REGION_LENGTH__:0xffa0
                0x00010000                __EEPROM_REGION_LENGTH__ = DEFINED (__EEPROM_REGION_LENGTH__)?__EEPROM_REGION_LENGTH__:0x10000
                [0x00000003]                __FUSE_REGION_LENGTH__ = DEFINED (__FUSE_REGION_LENGTH__)?__FUSE_REGION_LENGTH__:0x400
                0x00000400                __LOCK_REGION_LENGTH__ = DEFINED (__LOCK_REGION_LENGTH__)?__LOCK_REGION_LENGTH__:0x400
                0x00000400                __SIGNATURE_REGION_LENGTH__ = DEFINED (__SIGNATURE_REGION_LENGTH__)?__SIGNATURE_REGION_LENGTH__:0x400
                0x00000400                __USER_SIGNATURE_REGION_LENGTH__ = DEFINED (__USER_SIGNATURE_REGION_LENGTH__)?__USER_SIGNATURE_REGION_LENGTH__:0x400

.hash
 *(.hash)

.dynsym
 *(.dynsym)

.dynstr
 *(.dynstr)

.gnu.version
 *(.gnu.version)

.gnu.version_d
 *(.gnu.version_d)

.gnu.version_r
 *(.gnu.version_r)

.rel.init
 *(.rel.init)

.rela.init
 *(.rela.init)

.rel.text
 *(.rel.text)
 *(.rel.text.*)
 *(.rel.gnu.linkonce.t*)

.rela.text
 *(.rela.text)
 *(.rela.text.*)
 *(.rela.gnu.linkonce.t*)

.rel.fini
 *(.rel.fini)

.rela.fini
 *(.rela.fini)

.rel.rodata
 *(.rel.rodata)
 *(.rel.rodata.*)
 *(.rel.gnu.linkonce.r*)

.rela.rodata
 *(.rela.rodata)
 *(.rela.rodata.*)
 *(.rela.gnu.linkonce.r*)

.rel.data
 *(.rel.data)
 *(.rel.data.*)
 *(.rel.gnu.linkonce.d*)

.rela.data
 *(.rela.data)
 *(.rela.data.*)
 *(.rela.gnu.linkonce.d*)

.rel.ctors
 *(.rel.ctors)

.rela.ctors
 *(.rela.ctors)

.rel.dtors
 *(.rel.dtors)

.rela.dtors
 *(.rela.dtors)

.rel.got
 *(.rel.got)

.rela.got
 *(.rela.got)

.rel.bss
 *(.rel.bss)

.rela.bss
 *(.rela.bss)

.rel.plt
 *(.rel.plt)

.rela.plt
 *(.rela.plt)

.text           0x00000000     0x1e92
 *(.vectors)
 .vectors       0x00000000       0x68 C:/Program Files (x86)/Atmel/Studio/7.0/Packs/atmel/ATmega_DFP/1.2.150/gcc/dev/atmega328p/avr5/crtatmega328p.o
                0x00000000                __vector_default
                0x00000000                __vectors
 *(.vectors)
 *(.progmem.gcc*)
 .progmem.gcc_sw_table._Z10ShowScreenii
                0x00000068       0x18 EVT_test_fixture.o
                0x00000080                . = ALIGN (0x2)
                0x00000080                __trampolines_start = .
 *(.trampolines)
 .trampolines   0x00000080        0x0 linker stubs
 *(.trampolines*)
                0x00000080                __trampolines_end = .
 *libprintf_flt.a:*(.progmem.data)
 *libc.a:*(.progmem.data)
 *(.progmem*)
 .progmem.data.digital_pin_to_timer_PGM
                0x00000080       0x14 C:\Users\kphalak\Documents\Atmel Studio\7.0\EVT_test_fixture\EVT_test_fixture\ArduinoCore\Release\libArduinoCore.a(wiring_digital.o)
                0x00000080                digital_pin_to_timer_PGM
 .progmem.data.digital_pin_to_bit_mask_PGM
                0x00000094       0x14 C:\Users\kphalak\Documents\Atmel Studio\7.0\EVT_test_fixture\EVT_test_fixture\ArduinoCore\Release\libArduinoCore.a(wiring_digital.o)
                0x00000094                digital_pin_to_bit_mask_PGM
 .progmem.data.digital_pin_to_port_PGM
                0x000000a8       0x14 C:\Users\kphalak\Documents\Atmel Studio\7.0\EVT_test_fixture\EVT_test_fixture\ArduinoCore\Release\libArduinoCore.a(wiring_digital.o)
                0x000000a8                digital_pin_to_port_PGM
 .progmem.data.port_to_input_PGM
                0x000000bc        0xa C:\Users\kphalak\Documents\Atmel Studio\7.0\EVT_test_fixture\EVT_test_fixture\ArduinoCore\Release\libArduinoCore.a(wiring_digital.o)
                0x000000bc                port_to_input_PGM
 .progmem.data.port_to_output_PGM
                0x000000c6        0xa C:\Users\kphalak\Documents\Atmel Studio\7.0\EVT_test_fixture\EVT_test_fixture\ArduinoCore\Release\libArduinoCore.a(wiring_digital.o)
                0x000000c6                port_to_output_PGM
 .progmem.data.port_to_mode_PGM
                0x000000d0        0xa C:\Users\kphalak\Documents\Atmel Studio\7.0\EVT_test_fixture\EVT_test_fixture\ArduinoCore\Release\libArduinoCore.a(wiring_digital.o)
                0x000000d0                port_to_mode_PGM
                0x000000da                . = ALIGN (0x2)
 *(.jumptables)
 *(.jumptables*)
 *(.lowtext)
 *(.lowtext*)
                0x000000da                __ctors_start = .
 *(.ctors)
 .ctors         0x000000da        0x2 EVT_test_fixture.o
 .ctors         0x000000dc        0x2 C:\Users\kphalak\Documents\Atmel Studio\7.0\EVT_test_fixture\EVT_test_fixture\ArduinoCore\Release\libArduinoCore.a(HardwareSerial0.o)
                0x000000de                __ctors_end = .
                0x000000de                __dtors_start = .
 *(.dtors)
 .dtors         0x000000de        0x2 EVT_test_fixture.o
                0x000000e0                __dtors_end = .
 SORT(*)(.ctors)
 SORT(*)(.dtors)
 *(.init0)
 .init0         0x000000e0        0x0 C:/Program Files (x86)/Atmel/Studio/7.0/Packs/atmel/ATmega_DFP/1.2.150/gcc/dev/atmega328p/avr5/crtatmega328p.o
                0x000000e0                __init
 *(.init0)
 *(.init1)
 *(.init1)
 *(.init2)
 .init2         0x000000e0        0xc C:/Program Files (x86)/Atmel/Studio/7.0/Packs/atmel/ATmega_DFP/1.2.150/gcc/dev/atmega328p/avr5/crtatmega328p.o
 *(.init2)
 *(.init3)
 *(.init3)
 *(.init4)
 .init4         0x000000ec       0x16 c:/program files (x86)/atmel/studio/7.0/toolchain/avr8/avr8-gnu-toolchain/bin/../lib/gcc/avr/5.4.0/avr5\libgcc.a(_copy_data.o)
                0x000000ec                __do_copy_data
 .init4         0x00000102       0x10 c:/program files (x86)/atmel/studio/7.0/toolchain/avr8/avr8-gnu-toolchain/bin/../lib/gcc/avr/5.4.0/avr5\libgcc.a(_clear_bss.o)
                0x00000102                __do_clear_bss
 *(.init4)
 *(.init5)
 *(.init5)
 *(.init6)
 .init6         0x00000112       0x16 c:/program files (x86)/atmel/studio/7.0/toolchain/avr8/avr8-gnu-toolchain/bin/../lib/gcc/avr/5.4.0/avr5\libgcc.a(_ctors.o)
                0x00000112                __do_global_ctors
 *(.init6)
 *(.init7)
 *(.init7)
 *(.init8)
 *(.init8)
 *(.init9)
 .init9         0x00000128        0x8 C:/Program Files (x86)/Atmel/Studio/7.0/Packs/atmel/ATmega_DFP/1.2.150/gcc/dev/atmega328p/avr5/crtatmega328p.o
 *(.init9)
 *(.text)
 .text          0x00000130        0x4 C:/Program Files (x86)/Atmel/Studio/7.0/Packs/atmel/ATmega_DFP/1.2.150/gcc/dev/atmega328p/avr5/crtatmega328p.o
                0x00000130                __vector_22
                0x00000130                __vector_1
                0x00000130                __vector_24
                0x00000130                __vector_12
                0x00000130                __bad_interrupt
                0x00000130                __vector_6
                0x00000130                __vector_23
                0x00000130                __vector_25
                0x00000130                __vector_11
                0x00000130                __vector_13
                0x00000130                __vector_17
                0x00000130                __vector_7
                0x00000130                __vector_9
                0x00000130                __vector_2
                0x00000130                __vector_21
                0x00000130                __vector_15
                0x00000130                __vector_8
                0x00000130                __vector_14
                0x00000130                __vector_10
                0x00000130                __vector_20
                0x00000134                . = ALIGN (0x2)
 *(.text.*)
 .text._ZN6Button5IsLowEv.isra.1
                0x00000134       0x10 EVT_test_fixture.o
 .text._ZN6ButtonC2Ei
                0x00000144       0x2a EVT_test_fixture.o
                0x00000144                _ZN6ButtonC1Ei
                0x00000144                _ZN6ButtonC2Ei
 .text._ZN6Button9IsPressedEv
                0x0000016e       0x2e EVT_test_fixture.o
                0x0000016e                _ZN6Button9IsPressedEv
 .text._Z11resetEDPinsv
                0x0000019c       0x28 EVT_test_fixture.o
                0x0000019c                _Z11resetEDPinsv
 .text._Z9SetEDPinsv
                0x000001c4       0x2c EVT_test_fixture.o
                0x000001c4                _Z9SetEDPinsv
 .text._Z12StepMovementii
                0x000001f0       0x5a EVT_test_fixture.o
                0x000001f0                _Z12StepMovementii
 .text._Z11StepForwardii
                0x0000024a       0x24 EVT_test_fixture.o
                0x0000024a                _Z11StepForwardii
 .text._Z11ReverseStepii
                0x0000026e       0x24 EVT_test_fixture.o
                0x0000026e                _Z11ReverseStepii
 .text.startup._GLOBAL__sub_I_OpenLCD
                0x00000292       0x3e EVT_test_fixture.o
 .text.exit._GLOBAL__sub_D_OpenLCD
                0x000002d0        0x8 EVT_test_fixture.o
 .text._Z10ShowScreenii
                0x000002d8      0x1c0 EVT_test_fixture.o
                0x000002d8                _Z10ShowScreenii
 .text._Z18SetRestartLifeTestv
                0x00000498       0x92 EVT_test_fixture.o
                0x00000498                _Z18SetRestartLifeTestv
 .text._Z14SetRestartTestv
                0x0000052a       0x16 EVT_test_fixture.o
                0x0000052a                _Z14SetRestartTestv
 .text._Z11ConfirmTestv
                0x00000540       0x4a EVT_test_fixture.o
                0x00000540                _Z11ConfirmTestv
 .text._Z22ControlInitialPositionv
                0x0000058a       0xbc EVT_test_fixture.o
                0x0000058a                _Z22ControlInitialPositionv
 .text._Z20ControlCycleWaitTimev
                0x00000646       0xb4 EVT_test_fixture.o
                0x00000646                _Z20ControlCycleWaitTimev
 .text._Z19ControlStepWaitTimev
                0x000006fa       0xb0 EVT_test_fixture.o
                0x000006fa                _Z19ControlStepWaitTimev
 .text._Z18ControlCycleNumberv
                0x000007aa       0xcc EVT_test_fixture.o
                0x000007aa                _Z18ControlCycleNumberv
 .text._Z16ControlStepAnglev
                0x00000876       0xb6 EVT_test_fixture.o
                0x00000876                _Z16ControlStepAnglev
 .text._Z17SetTestParametersv
                0x0000092c       0x26 EVT_test_fixture.o
                0x0000092c                _Z17SetTestParametersv
 .text._Z15HandleEndOfTestv
                0x00000952       0x64 EVT_test_fixture.o
                0x00000952                _Z15HandleEndOfTestv
 .text._Z16ConfirmSelectionv
                0x000009b6       0x3e EVT_test_fixture.o
                0x000009b6                _Z16ConfirmSelectionv
 .text._Z15TurnOnBackLightv
                0x000009f4       0x3c EVT_test_fixture.o
                0x000009f4                _Z15TurnOnBackLightv
 .text.setup    0x00000a30       0x42 EVT_test_fixture.o
                0x00000a30                setup
 .text._Z23ShowScreenTestSelectioni
                0x00000a72       0x70 EVT_test_fixture.o
                0x00000a72                _Z23ShowScreenTestSelectioni
 .text._Z17TestSelectionLoopv
                0x00000ae2       0x94 EVT_test_fixture.o
                0x00000ae2                _Z17TestSelectionLoopv
 .text._Z11RunLifeTestv
                0x00000b76      0x1b0 EVT_test_fixture.o
                0x00000b76                _Z11RunLifeTestv
 .text._Z7RunTestv
                0x00000d26       0x26 EVT_test_fixture.o
                0x00000d26                _Z7RunTestv
 .text.loop     0x00000d4c       0x1c EVT_test_fixture.o
                0x00000d4c                loop
 .text.avr-libc.fplib
                0x00000d68        0x8 c:/program files (x86)/atmel/studio/7.0/toolchain/avr8/avr8-gnu-toolchain/bin/../lib/gcc/avr/5.4.0/../../../../avr/lib/avr5\libm.a(divsf3.o)
                0x00000d68                __divsf3
 .text.avr-libc.fplib
                0x00000d70       0xdc c:/program files (x86)/atmel/studio/7.0/toolchain/avr8/avr8-gnu-toolchain/bin/../lib/gcc/avr/5.4.0/../../../../avr/lib/avr5\libm.a(divsf3x.o)
                0x00000d90                __divsf3x
                0x00000d96                __divsf3_pse
 .text.avr-libc.fplib
                0x00000e4c        0xe c:/program files (x86)/atmel/studio/7.0/toolchain/avr8/avr8-gnu-toolchain/bin/../lib/gcc/avr/5.4.0/../../../../avr/lib/avr5\libm.a(fixsfsi.o)
                0x00000e4c                __fixsfsi
 .text.avr-libc.fplib
                0x00000e5a       0x5e c:/program files (x86)/atmel/studio/7.0/toolchain/avr8/avr8-gnu-toolchain/bin/../lib/gcc/avr/5.4.0/../../../../avr/lib/avr5\libm.a(fixunssfsi.o)
                0x00000e5a                __fixunssfsi
 .text.avr-libc.fplib
                0x00000eb8       0x7a c:/program files (x86)/atmel/studio/7.0/toolchain/avr8/avr8-gnu-toolchain/bin/../lib/gcc/avr/5.4.0/../../../../avr/lib/avr5\libm.a(floatsisf.o)
                0x00000eb8                __floatunsisf
                0x00000ebc                __floatsisf
 .text.avr-libc.fplib
                0x00000f32        0xc c:/program files (x86)/atmel/studio/7.0/toolchain/avr8/avr8-gnu-toolchain/bin/../lib/gcc/avr/5.4.0/../../../../avr/lib/avr5\libm.a(fp_inf.o)
                0x00000f32                __fp_inf
 .text.avr-libc.fplib
                0x00000f3e        0x6 c:/program files (x86)/atmel/studio/7.0/toolchain/avr8/avr8-gnu-toolchain/bin/../lib/gcc/avr/5.4.0/../../../../avr/lib/avr5\libm.a(fp_nan.o)
                0x00000f3e                __fp_nan
 .text.avr-libc.fplib
                0x00000f44        0xe c:/program files (x86)/atmel/studio/7.0/toolchain/avr8/avr8-gnu-toolchain/bin/../lib/gcc/avr/5.4.0/../../../../avr/lib/avr5\libm.a(fp_pscA.o)
                0x00000f44                __fp_pscA
 .text.avr-libc.fplib
                0x00000f52        0xe c:/program files (x86)/atmel/studio/7.0/toolchain/avr8/avr8-gnu-toolchain/bin/../lib/gcc/avr/5.4.0/../../../../avr/lib/avr5\libm.a(fp_pscB.o)
                0x00000f52                __fp_pscB
 .text.avr-libc.fplib
                0x00000f60       0x22 c:/program files (x86)/atmel/studio/7.0/toolchain/avr8/avr8-gnu-toolchain/bin/../lib/gcc/avr/5.4.0/../../../../avr/lib/avr5\libm.a(fp_round.o)
                0x00000f60                __fp_round
 .text.avr-libc.fplib
                0x00000f82       0x44 c:/program files (x86)/atmel/studio/7.0/toolchain/avr8/avr8-gnu-toolchain/bin/../lib/gcc/avr/5.4.0/../../../../avr/lib/avr5\libm.a(fp_split3.o)
                0x00000f82                __fp_split3
                0x00000f92                __fp_splitA
 .text.avr-libc.fplib
                0x00000fc6        0xe c:/program files (x86)/atmel/studio/7.0/toolchain/avr8/avr8-gnu-toolchain/bin/../lib/gcc/avr/5.4.0/../../../../avr/lib/avr5\libm.a(fp_zero.o)
                0x00000fc6                __fp_zero
                0x00000fc8                __fp_szero
 .text._ZN14HardwareSerial9availableEv
                0x00000fd4       0x18 C:\Users\kphalak\Documents\Atmel Studio\7.0\EVT_test_fixture\EVT_test_fixture\ArduinoCore\Release\libArduinoCore.a(HardwareSerial.o)
                0x00000fd4                _ZN14HardwareSerial9availableEv
 .text._ZN14HardwareSerial4peekEv
                0x00000fec       0x1c C:\Users\kphalak\Documents\Atmel Studio\7.0\EVT_test_fixture\EVT_test_fixture\ArduinoCore\Release\libArduinoCore.a(HardwareSerial.o)
                0x00000fec                _ZN14HardwareSerial4peekEv
 .text._ZN14HardwareSerial4readEv
                0x00001008       0x28 C:\Users\kphalak\Documents\Atmel Studio\7.0\EVT_test_fixture\EVT_test_fixture\ArduinoCore\Release\libArduinoCore.a(HardwareSerial.o)
                0x00001008                _ZN14HardwareSerial4readEv
 .text._ZN14HardwareSerial17availableForWriteEv
                0x00001030       0x1e C:\Users\kphalak\Documents\Atmel Studio\7.0\EVT_test_fixture\EVT_test_fixture\ArduinoCore\Release\libArduinoCore.a(HardwareSerial.o)
                0x00001030                _ZN14HardwareSerial17availableForWriteEv
 .text._Z14serialEventRunv
                0x0000104e       0x1c C:\Users\kphalak\Documents\Atmel Studio\7.0\EVT_test_fixture\EVT_test_fixture\ArduinoCore\Release\libArduinoCore.a(HardwareSerial.o)
                0x0000104e                _Z14serialEventRunv
 .text._ZN14HardwareSerial17_tx_udr_empty_irqEv
                0x0000106a       0x42 C:\Users\kphalak\Documents\Atmel Studio\7.0\EVT_test_fixture\EVT_test_fixture\ArduinoCore\Release\libArduinoCore.a(HardwareSerial.o)
                0x0000106a                _ZN14HardwareSerial17_tx_udr_empty_irqEv
 .text._ZN14HardwareSerial5writeEh
                0x000010ac       0x8e C:\Users\kphalak\Documents\Atmel Studio\7.0\EVT_test_fixture\EVT_test_fixture\ArduinoCore\Release\libArduinoCore.a(HardwareSerial.o)
                0x000010ac                _ZN14HardwareSerial5writeEh
 .text._ZN14HardwareSerial5flushEv
                0x0000113a       0x44 C:\Users\kphalak\Documents\Atmel Studio\7.0\EVT_test_fixture\EVT_test_fixture\ArduinoCore\Release\libArduinoCore.a(HardwareSerial.o)
                0x0000113a                _ZN14HardwareSerial5flushEv
 .text._ZN14HardwareSerial5beginEmh
                0x0000117e       0xca C:\Users\kphalak\Documents\Atmel Studio\7.0\EVT_test_fixture\EVT_test_fixture\ArduinoCore\Release\libArduinoCore.a(HardwareSerial.o)
                0x0000117e                _ZN14HardwareSerial5beginEmh
 .text._ZN5Print17availableForWriteEv
                0x00001248        0x6 C:\Users\kphalak\Documents\Atmel Studio\7.0\EVT_test_fixture\EVT_test_fixture\ArduinoCore\Release\libArduinoCore.a(HardwareSerial0.o)
                0x00001248                _ZN5Print17availableForWriteEv
 .text.__vector_18
                0x0000124e       0x64 C:\Users\kphalak\Documents\Atmel Studio\7.0\EVT_test_fixture\EVT_test_fixture\ArduinoCore\Release\libArduinoCore.a(HardwareSerial0.o)
                0x0000124e                __vector_18
 .text.__vector_19
                0x000012b2       0x4c C:\Users\kphalak\Documents\Atmel Studio\7.0\EVT_test_fixture\EVT_test_fixture\ArduinoCore\Release\libArduinoCore.a(HardwareSerial0.o)
                0x000012b2                __vector_19
 .text._Z17Serial0_availablev
                0x000012fe       0x14 C:\Users\kphalak\Documents\Atmel Studio\7.0\EVT_test_fixture\EVT_test_fixture\ArduinoCore\Release\libArduinoCore.a(HardwareSerial0.o)
                0x000012fe                _Z17Serial0_availablev
 .text.startup._GLOBAL__sub_I___vector_18
                0x00001312       0x5a C:\Users\kphalak\Documents\Atmel Studio\7.0\EVT_test_fixture\EVT_test_fixture\ArduinoCore\Release\libArduinoCore.a(HardwareSerial0.o)
 .text.initVariant
                0x0000136c        0x2 C:\Users\kphalak\Documents\Atmel Studio\7.0\EVT_test_fixture\EVT_test_fixture\ArduinoCore\Release\libArduinoCore.a(main.o)
                0x0000136c                initVariant
 .text.startup.main
                0x0000136e       0x1e C:\Users\kphalak\Documents\Atmel Studio\7.0\EVT_test_fixture\EVT_test_fixture\ArduinoCore\Release\libArduinoCore.a(main.o)
                0x0000136e                main
 .text._ZN5Print5writeEPKhj
                0x0000138c       0x54 C:\Users\kphalak\Documents\Atmel Studio\7.0\EVT_test_fixture\EVT_test_fixture\ArduinoCore\Release\libArduinoCore.a(Print.o)
                0x0000138c                _ZN5Print5writeEPKhj
 .text._ZN5Print5writeEPKc
                0x000013e0       0x2a C:\Users\kphalak\Documents\Atmel Studio\7.0\EVT_test_fixture\EVT_test_fixture\ArduinoCore\Release\libArduinoCore.a(Print.o)
                0x000013e0                _ZN5Print5writeEPKc
 .text._ZN5Print5printEPKc
                0x0000140a        0x4 C:\Users\kphalak\Documents\Atmel Studio\7.0\EVT_test_fixture\EVT_test_fixture\ArduinoCore\Release\libArduinoCore.a(Print.o)
                0x0000140a                _ZN5Print5printEPKc
 .text._ZN5Print5printEc
                0x0000140e        0xe C:\Users\kphalak\Documents\Atmel Studio\7.0\EVT_test_fixture\EVT_test_fixture\ArduinoCore\Release\libArduinoCore.a(Print.o)
                0x0000140e                _ZN5Print5printEc
 .text._ZN5Print7printlnEv
                0x0000141c        0x8 C:\Users\kphalak\Documents\Atmel Studio\7.0\EVT_test_fixture\EVT_test_fixture\ArduinoCore\Release\libArduinoCore.a(Print.o)
                0x0000141c                _ZN5Print7printlnEv
 .text._ZN5Print7printlnEPKc
                0x00001424       0x24 C:\Users\kphalak\Documents\Atmel Studio\7.0\EVT_test_fixture\EVT_test_fixture\ArduinoCore\Release\libArduinoCore.a(Print.o)
                0x00001424                _ZN5Print7printlnEPKc
 .text._ZN5Print11printNumberEmh
                0x00001448       0x92 C:\Users\kphalak\Documents\Atmel Studio\7.0\EVT_test_fixture\EVT_test_fixture\ArduinoCore\Release\libArduinoCore.a(Print.o)
                0x00001448                _ZN5Print11printNumberEmh
 .text._ZN5Print5printEli
                0x000014da       0x90 C:\Users\kphalak\Documents\Atmel Studio\7.0\EVT_test_fixture\EVT_test_fixture\ArduinoCore\Release\libArduinoCore.a(Print.o)
                0x000014da                _ZN5Print5printEli
 .text._ZN5Print5printEii
                0x0000156a        0xe C:\Users\kphalak\Documents\Atmel Studio\7.0\EVT_test_fixture\EVT_test_fixture\ArduinoCore\Release\libArduinoCore.a(Print.o)
                0x0000156a                _ZN5Print5printEii
 .text.__vector_16
                0x00001578       0x94 C:\Users\kphalak\Documents\Atmel Studio\7.0\EVT_test_fixture\EVT_test_fixture\ArduinoCore\Release\libArduinoCore.a(wiring.o)
                0x00001578                __vector_16
 .text.micros   0x0000160c       0x4a C:\Users\kphalak\Documents\Atmel Studio\7.0\EVT_test_fixture\EVT_test_fixture\ArduinoCore\Release\libArduinoCore.a(wiring.o)
                0x0000160c                micros
 .text.delay    0x00001656       0x78 C:\Users\kphalak\Documents\Atmel Studio\7.0\EVT_test_fixture\EVT_test_fixture\ArduinoCore\Release\libArduinoCore.a(wiring.o)
                0x00001656                delay
 .text.init     0x000016ce       0x76 C:\Users\kphalak\Documents\Atmel Studio\7.0\EVT_test_fixture\EVT_test_fixture\ArduinoCore\Release\libArduinoCore.a(wiring.o)
                0x000016ce                init
 .text.turnOffPWM
                0x00001744       0x52 C:\Users\kphalak\Documents\Atmel Studio\7.0\EVT_test_fixture\EVT_test_fixture\ArduinoCore\Release\libArduinoCore.a(wiring_digital.o)
 .text.pinMode  0x00001796       0x78 C:\Users\kphalak\Documents\Atmel Studio\7.0\EVT_test_fixture\EVT_test_fixture\ArduinoCore\Release\libArduinoCore.a(wiring_digital.o)
                0x00001796                pinMode
 .text.digitalWrite
                0x0000180e       0x5e C:\Users\kphalak\Documents\Atmel Studio\7.0\EVT_test_fixture\EVT_test_fixture\ArduinoCore\Release\libArduinoCore.a(wiring_digital.o)
                0x0000180e                digitalWrite
 .text.digitalRead
                0x0000186c       0x52 C:\Users\kphalak\Documents\Atmel Studio\7.0\EVT_test_fixture\EVT_test_fixture\ArduinoCore\Release\libArduinoCore.a(wiring_digital.o)
                0x0000186c                digitalRead
 .text._ZN14SoftwareSerial4readEv
                0x000018be       0x42 C:\Users\kphalak\Documents\Atmel Studio\7.0\EVT_test_fixture\EVT_test_fixture\ArduinoCore\Release\libArduinoCore.a(SoftwareSerial.o)
                0x000018be                _ZN14SoftwareSerial4readEv
 .text._ZN14SoftwareSerial5writeEh
                0x00001900       0xa0 C:\Users\kphalak\Documents\Atmel Studio\7.0\EVT_test_fixture\EVT_test_fixture\ArduinoCore\Release\libArduinoCore.a(SoftwareSerial.o)
                0x00001900                _ZN14SoftwareSerial5writeEh
 .text._ZN14SoftwareSerial5flushEv
                0x000019a0        0x2 C:\Users\kphalak\Documents\Atmel Studio\7.0\EVT_test_fixture\EVT_test_fixture\ArduinoCore\Release\libArduinoCore.a(SoftwareSerial.o)
                0x000019a0                _ZN14SoftwareSerial5flushEv
 .text._ZN14SoftwareSerial4peekEv
                0x000019a2       0x30 C:\Users\kphalak\Documents\Atmel Studio\7.0\EVT_test_fixture\EVT_test_fixture\ArduinoCore\Release\libArduinoCore.a(SoftwareSerial.o)
                0x000019a2                _ZN14SoftwareSerial4peekEv
 .text._ZN14SoftwareSerial9availableEv
                0x000019d2       0x30 C:\Users\kphalak\Documents\Atmel Studio\7.0\EVT_test_fixture\EVT_test_fixture\ArduinoCore\Release\libArduinoCore.a(SoftwareSerial.o)
                0x000019d2                _ZN14SoftwareSerial9availableEv
 .text._ZN14SoftwareSerial13stopListeningEv
                0x00001a02       0x2c C:\Users\kphalak\Documents\Atmel Studio\7.0\EVT_test_fixture\EVT_test_fixture\ArduinoCore\Release\libArduinoCore.a(SoftwareSerial.o)
                0x00001a02                _ZN14SoftwareSerial13stopListeningEv
 .text._ZN14SoftwareSerial6listenEv
                0x00001a2e       0x52 C:\Users\kphalak\Documents\Atmel Studio\7.0\EVT_test_fixture\EVT_test_fixture\ArduinoCore\Release\libArduinoCore.a(SoftwareSerial.o)
                0x00001a2e                _ZN14SoftwareSerial6listenEv
 .text.__vector_3
                0x00001a80       0xf4 C:\Users\kphalak\Documents\Atmel Studio\7.0\EVT_test_fixture\EVT_test_fixture\ArduinoCore\Release\libArduinoCore.a(SoftwareSerial.o)
                0x00001a80                __vector_5
                0x00001a80                __vector_4
                0x00001a80                __vector_3
 .text._ZN14SoftwareSerialD2Ev
                0x00001b74        0xe C:\Users\kphalak\Documents\Atmel Studio\7.0\EVT_test_fixture\EVT_test_fixture\ArduinoCore\Release\libArduinoCore.a(SoftwareSerial.o)
                0x00001b74                _ZN14SoftwareSerialD1Ev
                0x00001b74                _ZN14SoftwareSerialD2Ev
 .text._ZN14SoftwareSerial5setTXEh
                0x00001b82       0x52 C:\Users\kphalak\Documents\Atmel Studio\7.0\EVT_test_fixture\EVT_test_fixture\ArduinoCore\Release\libArduinoCore.a(SoftwareSerial.o)
                0x00001b82                _ZN14SoftwareSerial5setTXEh
 .text._ZN14SoftwareSerial5setRXEh
                0x00001bd4       0x52 C:\Users\kphalak\Documents\Atmel Studio\7.0\EVT_test_fixture\EVT_test_fixture\ArduinoCore\Release\libArduinoCore.a(SoftwareSerial.o)
                0x00001bd4                _ZN14SoftwareSerial5setRXEh
 .text._ZN14SoftwareSerialC2Ehhb
                0x00001c26       0x56 C:\Users\kphalak\Documents\Atmel Studio\7.0\EVT_test_fixture\EVT_test_fixture\ArduinoCore\Release\libArduinoCore.a(SoftwareSerial.o)
                0x00001c26                _ZN14SoftwareSerialC1Ehhb
                0x00001c26                _ZN14SoftwareSerialC2Ehhb
 .text._ZN14SoftwareSerial5beginEl
                0x00001c7c      0x11c C:\Users\kphalak\Documents\Atmel Studio\7.0\EVT_test_fixture\EVT_test_fixture\ArduinoCore\Release\libArduinoCore.a(SoftwareSerial.o)
                0x00001c7c                _ZN14SoftwareSerial5beginEl
 .text.__empty  0x00001d98        0x2 C:\Users\kphalak\Documents\Atmel Studio\7.0\EVT_test_fixture\EVT_test_fixture\ArduinoCore\Release\libArduinoCore.a(hooks.o)
                0x00001d98                yield
 .text.libgcc.div
                0x00001d9a       0x28 c:/program files (x86)/atmel/studio/7.0/toolchain/avr8/avr8-gnu-toolchain/bin/../lib/gcc/avr/5.4.0/avr5\libgcc.a(_divmodhi4.o)
                0x00001d9a                _div
                0x00001d9a                __divmodhi4
 .text.libgcc.div
                0x00001dc2       0x44 c:/program files (x86)/atmel/studio/7.0/toolchain/avr8/avr8-gnu-toolchain/bin/../lib/gcc/avr/5.4.0/avr5\libgcc.a(_udivmodsi4.o)
                0x00001dc2                __udivmodsi4
 .text.libgcc.div
                0x00001e06       0x2e c:/program files (x86)/atmel/studio/7.0/toolchain/avr8/avr8-gnu-toolchain/bin/../lib/gcc/avr/5.4.0/avr5\libgcc.a(_divmodsi4.o)
                0x00001e06                __divmodsi4
 .text.libgcc.div
                0x00001e34       0x10 c:/program files (x86)/atmel/studio/7.0/toolchain/avr8/avr8-gnu-toolchain/bin/../lib/gcc/avr/5.4.0/avr5\libgcc.a(_negsi2.o)
                0x00001e34                __negsi2
 .text.libgcc   0x00001e44        0xc c:/program files (x86)/atmel/studio/7.0/toolchain/avr8/avr8-gnu-toolchain/bin/../lib/gcc/avr/5.4.0/avr5\libgcc.a(_tablejump2.o)
                0x00001e44                __tablejump2__
 .text.libgcc.div
                0x00001e50       0x28 c:/program files (x86)/atmel/studio/7.0/toolchain/avr8/avr8-gnu-toolchain/bin/../lib/gcc/avr/5.4.0/avr5\libgcc.a(_udivmodhi4.o)
                0x00001e50                __udivmodhi4
                0x00001e78                . = ALIGN (0x2)
 *(.fini9)
 .fini9         0x00001e78        0x0 c:/program files (x86)/atmel/studio/7.0/toolchain/avr8/avr8-gnu-toolchain/bin/../lib/gcc/avr/5.4.0/avr5\libgcc.a(_exit.o)
                0x00001e78                _exit
                0x00001e78                exit
 *(.fini9)
 *(.fini8)
 *(.fini8)
 *(.fini7)
 *(.fini7)
 *(.fini6)
 .fini6         0x00001e78       0x16 c:/program files (x86)/atmel/studio/7.0/toolchain/avr8/avr8-gnu-toolchain/bin/../lib/gcc/avr/5.4.0/avr5\libgcc.a(_dtors.o)
                0x00001e78                __do_global_dtors
 *(.fini6)
 *(.fini5)
 *(.fini5)
 *(.fini4)
 *(.fini4)
 *(.fini3)
 *(.fini3)
 *(.fini2)
 *(.fini2)
 *(.fini1)
 *(.fini1)
 *(.fini0)
 .fini0         0x00001e8e        0x4 c:/program files (x86)/atmel/studio/7.0/toolchain/avr8/avr8-gnu-toolchain/bin/../lib/gcc/avr/5.4.0/avr5\libgcc.a(_exit.o)
 *(.fini0)
                0x00001e92                _etext = .

.data           0x00800100      0x214 load address 0x00001e92
                0x00800100                PROVIDE (__data_start, .)
 *(.data)
 *(.data*)
 .data.ActiveLifeTestParam
                0x00800100        0x1 EVT_test_fixture.o
                0x00800100                ActiveLifeTestParam
 .data.motor_direction_forward
                0x00800101        0x1 EVT_test_fixture.o
                0x00800101                motor_direction_forward
 .data.life_test_cycle_wait
                0x00800102        0x2 EVT_test_fixture.o
                0x00800102                life_test_cycle_wait
 .data.life_test_step_wait
                0x00800104        0x2 EVT_test_fixture.o
                0x00800104                life_test_step_wait
 .data.life_test_max_cycles
                0x00800106        0x2 EVT_test_fixture.o
                0x00800106                life_test_max_cycles
 .data.life_test_step_angle
                0x00800108        0x2 EVT_test_fixture.o
                0x00800108                life_test_step_angle
 *(.gnu.linkonce.d*)
 *(.rodata)
 *(.rodata*)
 .rodata.str1.1
                0x0080010a      0x1d6 EVT_test_fixture.o
 .rodata._ZTV14HardwareSerial
                0x008002e0       0x12 C:\Users\kphalak\Documents\Atmel Studio\7.0\EVT_test_fixture\EVT_test_fixture\ArduinoCore\Release\libArduinoCore.a(HardwareSerial.o)
                0x008002e0                _ZTV14HardwareSerial
 .rodata.str1.1
                0x008002f2        0xf C:\Users\kphalak\Documents\Atmel Studio\7.0\EVT_test_fixture\EVT_test_fixture\ArduinoCore\Release\libArduinoCore.a(Print.o)
 .rodata._ZTV14SoftwareSerial
                0x00800301       0x12 C:\Users\kphalak\Documents\Atmel Studio\7.0\EVT_test_fixture\EVT_test_fixture\ArduinoCore\Release\libArduinoCore.a(SoftwareSerial.o)
                0x00800301                _ZTV14SoftwareSerial
 *(.gnu.linkonce.r*)
                0x00800314                . = ALIGN (0x2)
 *fill*         0x00800313        0x1 
                0x00800314                _edata = .
                0x00800314                PROVIDE (__data_end, .)

.bss            0x00800314      0x125
                0x00800314                PROVIDE (__bss_start, .)
 *(.bss)
 *(.bss*)
 .bss.current_state
                0x00800314        0x1 EVT_test_fixture.o
 .bss.current_option
                0x00800315        0x1 EVT_test_fixture.o
                0x00800315                current_option
 .bss.btn_next  0x00800316        0x6 EVT_test_fixture.o
                0x00800316                btn_next
 .bss.btn_select
                0x0080031c        0x6 EVT_test_fixture.o
                0x0080031c                btn_select
 .bss.btn_back  0x00800322        0x6 EVT_test_fixture.o
                0x00800322                btn_back
 .bss.btn_prev  0x00800328        0x6 EVT_test_fixture.o
                0x00800328                btn_prev
 .bss.life_test_cycles_finished
                0x0080032e        0x2 EVT_test_fixture.o
                0x0080032e                life_test_cycles_finished
 .bss.OpenLCD   0x00800330       0x1f EVT_test_fixture.o
                0x00800330                OpenLCD
 .bss.Serial    0x0080034f       0x9d C:\Users\kphalak\Documents\Atmel Studio\7.0\EVT_test_fixture\EVT_test_fixture\ArduinoCore\Release\libArduinoCore.a(HardwareSerial0.o)
                0x0080034f                Serial
 .bss.timer0_fract
                0x008003ec        0x1 C:\Users\kphalak\Documents\Atmel Studio\7.0\EVT_test_fixture\EVT_test_fixture\ArduinoCore\Release\libArduinoCore.a(wiring.o)
 .bss.timer0_millis
                0x008003ed        0x4 C:\Users\kphalak\Documents\Atmel Studio\7.0\EVT_test_fixture\EVT_test_fixture\ArduinoCore\Release\libArduinoCore.a(wiring.o)
                0x008003ed                timer0_millis
 .bss.timer0_overflow_count
                0x008003f1        0x4 C:\Users\kphalak\Documents\Atmel Studio\7.0\EVT_test_fixture\EVT_test_fixture\ArduinoCore\Release\libArduinoCore.a(wiring.o)
                0x008003f1                timer0_overflow_count
 .bss._ZN14SoftwareSerial20_receive_buffer_headE
                0x008003f5        0x1 C:\Users\kphalak\Documents\Atmel Studio\7.0\EVT_test_fixture\EVT_test_fixture\ArduinoCore\Release\libArduinoCore.a(SoftwareSerial.o)
                0x008003f5                _ZN14SoftwareSerial20_receive_buffer_headE
 .bss._ZN14SoftwareSerial20_receive_buffer_tailE
                0x008003f6        0x1 C:\Users\kphalak\Documents\Atmel Studio\7.0\EVT_test_fixture\EVT_test_fixture\ArduinoCore\Release\libArduinoCore.a(SoftwareSerial.o)
                0x008003f6                _ZN14SoftwareSerial20_receive_buffer_tailE
 .bss._ZN14SoftwareSerial15_receive_bufferE
                0x008003f7       0x40 C:\Users\kphalak\Documents\Atmel Studio\7.0\EVT_test_fixture\EVT_test_fixture\ArduinoCore\Release\libArduinoCore.a(SoftwareSerial.o)
                0x008003f7                _ZN14SoftwareSerial15_receive_bufferE
 .bss._ZN14SoftwareSerial13active_objectE
                0x00800437        0x2 C:\Users\kphalak\Documents\Atmel Studio\7.0\EVT_test_fixture\EVT_test_fixture\ArduinoCore\Release\libArduinoCore.a(SoftwareSerial.o)
                0x00800437                _ZN14SoftwareSerial13active_objectE
 *(COMMON)
                0x00800439                PROVIDE (__bss_end, .)
                0x00001e92                __data_load_start = LOADADDR (.data)
                0x000020a6                __data_load_end = (__data_load_start + SIZEOF (.data))

.noinit         0x00800439        0x0
                [!provide]                PROVIDE (__noinit_start, .)
 *(.noinit*)
                [!provide]                PROVIDE (__noinit_end, .)
                0x00800439                _end = .
                [!provide]                PROVIDE (__heap_start, .)

.eeprom         0x00810000        0x0
 *(.eeprom*)
                0x00810000                __eeprom_end = .

.fuse
 *(.fuse)
 *(.lfuse)
 *(.hfuse)
 *(.efuse)

.lock
 *(.lock*)

.signature
 *(.signature*)

.user_signatures
 *(.user_signatures*)

.stab
 *(.stab)

.stabstr
 *(.stabstr)

.stab.excl
 *(.stab.excl)

.stab.exclstr
 *(.stab.exclstr)

.stab.index
 *(.stab.index)

.stab.indexstr
 *(.stab.indexstr)

.comment        0x00000000       0x30
 *(.comment)
 .comment       0x00000000       0x30 EVT_test_fixture.o
                                 0x31 (size before relaxing)
 .comment       0x00000030       0x31 C:\Users\kphalak\Documents\Atmel Studio\7.0\EVT_test_fixture\EVT_test_fixture\ArduinoCore\Release\libArduinoCore.a(HardwareSerial.o)
 .comment       0x00000030       0x31 C:\Users\kphalak\Documents\Atmel Studio\7.0\EVT_test_fixture\EVT_test_fixture\ArduinoCore\Release\libArduinoCore.a(HardwareSerial0.o)
 .comment       0x00000030       0x31 C:\Users\kphalak\Documents\Atmel Studio\7.0\EVT_test_fixture\EVT_test_fixture\ArduinoCore\Release\libArduinoCore.a(main.o)
 .comment       0x00000030       0x31 C:\Users\kphalak\Documents\Atmel Studio\7.0\EVT_test_fixture\EVT_test_fixture\ArduinoCore\Release\libArduinoCore.a(Print.o)
 .comment       0x00000030       0x31 C:\Users\kphalak\Documents\Atmel Studio\7.0\EVT_test_fixture\EVT_test_fixture\ArduinoCore\Release\libArduinoCore.a(wiring.o)
 .comment       0x00000030       0x31 C:\Users\kphalak\Documents\Atmel Studio\7.0\EVT_test_fixture\EVT_test_fixture\ArduinoCore\Release\libArduinoCore.a(wiring_digital.o)
 .comment       0x00000030       0x31 C:\Users\kphalak\Documents\Atmel Studio\7.0\EVT_test_fixture\EVT_test_fixture\ArduinoCore\Release\libArduinoCore.a(SoftwareSerial.o)
 .comment       0x00000030       0x31 C:\Users\kphalak\Documents\Atmel Studio\7.0\EVT_test_fixture\EVT_test_fixture\ArduinoCore\Release\libArduinoCore.a(hooks.o)

.note.gnu.avr.deviceinfo
                0x00000000       0x40
 .note.gnu.avr.deviceinfo
                0x00000000       0x40 C:/Program Files (x86)/Atmel/Studio/7.0/Packs/atmel/ATmega_DFP/1.2.150/gcc/dev/atmega328p/avr5/crtatmega328p.o

.note.gnu.build-id
 *(.note.gnu.build-id)

.debug
 *(.debug)

.line
 *(.line)

.debug_srcinfo
 *(.debug_srcinfo)

.debug_sfnames
 *(.debug_sfnames)

.debug_aranges  0x00000000      0x430
 *(.debug_aranges)
 .debug_aranges
                0x00000000      0x108 EVT_test_fixture.o
 .debug_aranges
                0x00000108       0x68 C:\Users\kphalak\Documents\Atmel Studio\7.0\EVT_test_fixture\EVT_test_fixture\ArduinoCore\Release\libArduinoCore.a(HardwareSerial.o)
 .debug_aranges
                0x00000170       0x48 C:\Users\kphalak\Documents\Atmel Studio\7.0\EVT_test_fixture\EVT_test_fixture\ArduinoCore\Release\libArduinoCore.a(HardwareSerial0.o)
 .debug_aranges
                0x000001b8       0x30 C:\Users\kphalak\Documents\Atmel Studio\7.0\EVT_test_fixture\EVT_test_fixture\ArduinoCore\Release\libArduinoCore.a(main.o)
 .debug_aranges
                0x000001e8      0x100 C:\Users\kphalak\Documents\Atmel Studio\7.0\EVT_test_fixture\EVT_test_fixture\ArduinoCore\Release\libArduinoCore.a(Print.o)
 .debug_aranges
                0x000002e8       0x48 C:\Users\kphalak\Documents\Atmel Studio\7.0\EVT_test_fixture\EVT_test_fixture\ArduinoCore\Release\libArduinoCore.a(wiring.o)
 .debug_aranges
                0x00000330       0x38 C:\Users\kphalak\Documents\Atmel Studio\7.0\EVT_test_fixture\EVT_test_fixture\ArduinoCore\Release\libArduinoCore.a(wiring_digital.o)
 .debug_aranges
                0x00000368       0xa8 C:\Users\kphalak\Documents\Atmel Studio\7.0\EVT_test_fixture\EVT_test_fixture\ArduinoCore\Release\libArduinoCore.a(SoftwareSerial.o)
 .debug_aranges
                0x00000410       0x20 C:\Users\kphalak\Documents\Atmel Studio\7.0\EVT_test_fixture\EVT_test_fixture\ArduinoCore\Release\libArduinoCore.a(hooks.o)

.debug_pubnames
 *(.debug_pubnames)

.debug_info     0x00000000     0xcb62
 *(.debug_info .gnu.linkonce.wi.*)
 .debug_info    0x00000000      0x5f4 C:/Program Files (x86)/Atmel/Studio/7.0/Packs/atmel/ATmega_DFP/1.2.150/gcc/dev/atmega328p/avr5/crtatmega328p.o
 .debug_info    0x000005f4     0x2ea0 EVT_test_fixture.o
 .debug_info    0x00003494     0x1e89 C:\Users\kphalak\Documents\Atmel Studio\7.0\EVT_test_fixture\EVT_test_fixture\ArduinoCore\Release\libArduinoCore.a(HardwareSerial.o)
 .debug_info    0x0000531d     0x1b16 C:\Users\kphalak\Documents\Atmel Studio\7.0\EVT_test_fixture\EVT_test_fixture\ArduinoCore\Release\libArduinoCore.a(HardwareSerial0.o)
 .debug_info    0x00006e33      0x237 C:\Users\kphalak\Documents\Atmel Studio\7.0\EVT_test_fixture\EVT_test_fixture\ArduinoCore\Release\libArduinoCore.a(main.o)
 .debug_info    0x0000706a     0x28ff C:\Users\kphalak\Documents\Atmel Studio\7.0\EVT_test_fixture\EVT_test_fixture\ArduinoCore\Release\libArduinoCore.a(Print.o)
 .debug_info    0x00009969      0x2cb C:\Users\kphalak\Documents\Atmel Studio\7.0\EVT_test_fixture\EVT_test_fixture\ArduinoCore\Release\libArduinoCore.a(wiring.o)
 .debug_info    0x00009c34      0x5fe C:\Users\kphalak\Documents\Atmel Studio\7.0\EVT_test_fixture\EVT_test_fixture\ArduinoCore\Release\libArduinoCore.a(wiring_digital.o)
 .debug_info    0x0000a232     0x28f2 C:\Users\kphalak\Documents\Atmel Studio\7.0\EVT_test_fixture\EVT_test_fixture\ArduinoCore\Release\libArduinoCore.a(SoftwareSerial.o)
 .debug_info    0x0000cb24       0x3e C:\Users\kphalak\Documents\Atmel Studio\7.0\EVT_test_fixture\EVT_test_fixture\ArduinoCore\Release\libArduinoCore.a(hooks.o)

.debug_abbrev   0x00000000     0x2177
 *(.debug_abbrev)
 .debug_abbrev  0x00000000      0x5a2 C:/Program Files (x86)/Atmel/Studio/7.0/Packs/atmel/ATmega_DFP/1.2.150/gcc/dev/atmega328p/avr5/crtatmega328p.o
 .debug_abbrev  0x000005a2      0x558 EVT_test_fixture.o
 .debug_abbrev  0x00000afa      0x432 C:\Users\kphalak\Documents\Atmel Studio\7.0\EVT_test_fixture\EVT_test_fixture\ArduinoCore\Release\libArduinoCore.a(HardwareSerial.o)
 .debug_abbrev  0x00000f2c      0x3ce C:\Users\kphalak\Documents\Atmel Studio\7.0\EVT_test_fixture\EVT_test_fixture\ArduinoCore\Release\libArduinoCore.a(HardwareSerial0.o)
 .debug_abbrev  0x000012fa      0x12d C:\Users\kphalak\Documents\Atmel Studio\7.0\EVT_test_fixture\EVT_test_fixture\ArduinoCore\Release\libArduinoCore.a(main.o)
 .debug_abbrev  0x00001427      0x47a C:\Users\kphalak\Documents\Atmel Studio\7.0\EVT_test_fixture\EVT_test_fixture\ArduinoCore\Release\libArduinoCore.a(Print.o)
 .debug_abbrev  0x000018a1      0x146 C:\Users\kphalak\Documents\Atmel Studio\7.0\EVT_test_fixture\EVT_test_fixture\ArduinoCore\Release\libArduinoCore.a(wiring.o)
 .debug_abbrev  0x000019e7      0x15b C:\Users\kphalak\Documents\Atmel Studio\7.0\EVT_test_fixture\EVT_test_fixture\ArduinoCore\Release\libArduinoCore.a(wiring_digital.o)
 .debug_abbrev  0x00001b42      0x60b C:\Users\kphalak\Documents\Atmel Studio\7.0\EVT_test_fixture\EVT_test_fixture\ArduinoCore\Release\libArduinoCore.a(SoftwareSerial.o)
 .debug_abbrev  0x0000214d       0x2a C:\Users\kphalak\Documents\Atmel Studio\7.0\EVT_test_fixture\EVT_test_fixture\ArduinoCore\Release\libArduinoCore.a(hooks.o)

.debug_line     0x00000000     0x28d1
 *(.debug_line .debug_line.* .debug_line_end)
 .debug_line    0x00000000      0x133 C:/Program Files (x86)/Atmel/Studio/7.0/Packs/atmel/ATmega_DFP/1.2.150/gcc/dev/atmega328p/avr5/crtatmega328p.o
 .debug_line    0x00000133      0xc05 EVT_test_fixture.o
 .debug_line    0x00000d38      0x426 C:\Users\kphalak\Documents\Atmel Studio\7.0\EVT_test_fixture\EVT_test_fixture\ArduinoCore\Release\libArduinoCore.a(HardwareSerial.o)
 .debug_line    0x0000115e      0x28c C:\Users\kphalak\Documents\Atmel Studio\7.0\EVT_test_fixture\EVT_test_fixture\ArduinoCore\Release\libArduinoCore.a(HardwareSerial0.o)
 .debug_line    0x000013ea      0x165 C:\Users\kphalak\Documents\Atmel Studio\7.0\EVT_test_fixture\EVT_test_fixture\ArduinoCore\Release\libArduinoCore.a(main.o)
 .debug_line    0x0000154f      0x685 C:\Users\kphalak\Documents\Atmel Studio\7.0\EVT_test_fixture\EVT_test_fixture\ArduinoCore\Release\libArduinoCore.a(Print.o)
 .debug_line    0x00001bd4      0x299 C:\Users\kphalak\Documents\Atmel Studio\7.0\EVT_test_fixture\EVT_test_fixture\ArduinoCore\Release\libArduinoCore.a(wiring.o)
 .debug_line    0x00001e6d      0x252 C:\Users\kphalak\Documents\Atmel Studio\7.0\EVT_test_fixture\EVT_test_fixture\ArduinoCore\Release\libArduinoCore.a(wiring_digital.o)
 .debug_line    0x000020bf      0x7d1 C:\Users\kphalak\Documents\Atmel Studio\7.0\EVT_test_fixture\EVT_test_fixture\ArduinoCore\Release\libArduinoCore.a(SoftwareSerial.o)
 .debug_line    0x00002890       0x41 C:\Users\kphalak\Documents\Atmel Studio\7.0\EVT_test_fixture\EVT_test_fixture\ArduinoCore\Release\libArduinoCore.a(hooks.o)

.debug_frame    0x00000000      0xc4c
 *(.debug_frame)
 .debug_frame   0x00000000      0x324 EVT_test_fixture.o
 .debug_frame   0x00000324      0x110 C:\Users\kphalak\Documents\Atmel Studio\7.0\EVT_test_fixture\EVT_test_fixture\ArduinoCore\Release\libArduinoCore.a(HardwareSerial.o)
 .debug_frame   0x00000434       0xe0 C:\Users\kphalak\Documents\Atmel Studio\7.0\EVT_test_fixture\EVT_test_fixture\ArduinoCore\Release\libArduinoCore.a(HardwareSerial0.o)
 .debug_frame   0x00000514       0x54 C:\Users\kphalak\Documents\Atmel Studio\7.0\EVT_test_fixture\EVT_test_fixture\ArduinoCore\Release\libArduinoCore.a(main.o)
 .debug_frame   0x00000568      0x3ac C:\Users\kphalak\Documents\Atmel Studio\7.0\EVT_test_fixture\EVT_test_fixture\ArduinoCore\Release\libArduinoCore.a(Print.o)
 .debug_frame   0x00000914       0xc4 C:\Users\kphalak\Documents\Atmel Studio\7.0\EVT_test_fixture\EVT_test_fixture\ArduinoCore\Release\libArduinoCore.a(wiring.o)
 .debug_frame   0x000009d8       0x7c C:\Users\kphalak\Documents\Atmel Studio\7.0\EVT_test_fixture\EVT_test_fixture\ArduinoCore\Release\libArduinoCore.a(wiring_digital.o)
 .debug_frame   0x00000a54      0x1d4 C:\Users\kphalak\Documents\Atmel Studio\7.0\EVT_test_fixture\EVT_test_fixture\ArduinoCore\Release\libArduinoCore.a(SoftwareSerial.o)
 .debug_frame   0x00000c28       0x24 C:\Users\kphalak\Documents\Atmel Studio\7.0\EVT_test_fixture\EVT_test_fixture\ArduinoCore\Release\libArduinoCore.a(hooks.o)

.debug_str      0x00000000     0x2bdb
 *(.debug_str)
 .debug_str     0x00000000      0x208 C:/Program Files (x86)/Atmel/Studio/7.0/Packs/atmel/ATmega_DFP/1.2.150/gcc/dev/atmega328p/avr5/crtatmega328p.o
 .debug_str     0x00000208     0x15ca EVT_test_fixture.o
                               0x1705 (size before relaxing)
 .debug_str     0x000017d2      0x803 C:\Users\kphalak\Documents\Atmel Studio\7.0\EVT_test_fixture\EVT_test_fixture\ArduinoCore\Release\libArduinoCore.a(HardwareSerial.o)
                               0x15f9 (size before relaxing)
 .debug_str     0x00001fd5       0x86 C:\Users\kphalak\Documents\Atmel Studio\7.0\EVT_test_fixture\EVT_test_fixture\ArduinoCore\Release\libArduinoCore.a(HardwareSerial0.o)
                               0x1415 (size before relaxing)
 .debug_str     0x0000205b       0x37 C:\Users\kphalak\Documents\Atmel Studio\7.0\EVT_test_fixture\EVT_test_fixture\ArduinoCore\Release\libArduinoCore.a(main.o)
                                0x2c1 (size before relaxing)
 .debug_str     0x00002092      0x385 C:\Users\kphalak\Documents\Atmel Studio\7.0\EVT_test_fixture\EVT_test_fixture\ArduinoCore\Release\libArduinoCore.a(Print.o)
                               0x124f (size before relaxing)
 .debug_str     0x00002417      0x156 C:\Users\kphalak\Documents\Atmel Studio\7.0\EVT_test_fixture\EVT_test_fixture\ArduinoCore\Release\libArduinoCore.a(wiring.o)
                                0x257 (size before relaxing)
 .debug_str     0x0000256d       0xbb C:\Users\kphalak\Documents\Atmel Studio\7.0\EVT_test_fixture\EVT_test_fixture\ArduinoCore\Release\libArduinoCore.a(wiring_digital.o)
                                0x2bc (size before relaxing)
 .debug_str     0x00002628      0x597 C:\Users\kphalak\Documents\Atmel Studio\7.0\EVT_test_fixture\EVT_test_fixture\ArduinoCore\Release\libArduinoCore.a(SoftwareSerial.o)
                               0x1938 (size before relaxing)
 .debug_str     0x00002bbf       0x1c C:\Users\kphalak\Documents\Atmel Studio\7.0\EVT_test_fixture\EVT_test_fixture\ArduinoCore\Release\libArduinoCore.a(hooks.o)
                                0x14c (size before relaxing)

.debug_loc      0x00000000     0x40e4
 *(.debug_loc)
 .debug_loc     0x00000000      0x90c EVT_test_fixture.o
 .debug_loc     0x0000090c      0x482 C:\Users\kphalak\Documents\Atmel Studio\7.0\EVT_test_fixture\EVT_test_fixture\ArduinoCore\Release\libArduinoCore.a(HardwareSerial.o)
 .debug_loc     0x00000d8e      0x1b0 C:\Users\kphalak\Documents\Atmel Studio\7.0\EVT_test_fixture\EVT_test_fixture\ArduinoCore\Release\libArduinoCore.a(HardwareSerial0.o)
 .debug_loc     0x00000f3e     0x1c87 C:\Users\kphalak\Documents\Atmel Studio\7.0\EVT_test_fixture\EVT_test_fixture\ArduinoCore\Release\libArduinoCore.a(Print.o)
 .debug_loc     0x00002bc5      0x28d C:\Users\kphalak\Documents\Atmel Studio\7.0\EVT_test_fixture\EVT_test_fixture\ArduinoCore\Release\libArduinoCore.a(wiring.o)
 .debug_loc     0x00002e52      0x5fc C:\Users\kphalak\Documents\Atmel Studio\7.0\EVT_test_fixture\EVT_test_fixture\ArduinoCore\Release\libArduinoCore.a(wiring_digital.o)
 .debug_loc     0x0000344e      0xc96 C:\Users\kphalak\Documents\Atmel Studio\7.0\EVT_test_fixture\EVT_test_fixture\ArduinoCore\Release\libArduinoCore.a(SoftwareSerial.o)

.debug_macinfo
 *(.debug_macinfo)

.debug_weaknames
 *(.debug_weaknames)

.debug_funcnames
 *(.debug_funcnames)

.debug_typenames
 *(.debug_typenames)

.debug_varnames
 *(.debug_varnames)

.debug_pubtypes
 *(.debug_pubtypes)

.debug_ranges   0x00000000      0x418
 *(.debug_ranges)
 .debug_ranges  0x00000000       0xf8 EVT_test_fixture.o
 .debug_ranges  0x000000f8       0x58 C:\Users\kphalak\Documents\Atmel Studio\7.0\EVT_test_fixture\EVT_test_fixture\ArduinoCore\Release\libArduinoCore.a(HardwareSerial.o)
 .debug_ranges  0x00000150       0x38 C:\Users\kphalak\Documents\Atmel Studio\7.0\EVT_test_fixture\EVT_test_fixture\ArduinoCore\Release\libArduinoCore.a(HardwareSerial0.o)
 .debug_ranges  0x00000188       0x20 C:\Users\kphalak\Documents\Atmel Studio\7.0\EVT_test_fixture\EVT_test_fixture\ArduinoCore\Release\libArduinoCore.a(main.o)
 .debug_ranges  0x000001a8      0x120 C:\Users\kphalak\Documents\Atmel Studio\7.0\EVT_test_fixture\EVT_test_fixture\ArduinoCore\Release\libArduinoCore.a(Print.o)
 .debug_ranges  0x000002c8       0x38 C:\Users\kphalak\Documents\Atmel Studio\7.0\EVT_test_fixture\EVT_test_fixture\ArduinoCore\Release\libArduinoCore.a(wiring.o)
 .debug_ranges  0x00000300       0x28 C:\Users\kphalak\Documents\Atmel Studio\7.0\EVT_test_fixture\EVT_test_fixture\ArduinoCore\Release\libArduinoCore.a(wiring_digital.o)
 .debug_ranges  0x00000328       0xe0 C:\Users\kphalak\Documents\Atmel Studio\7.0\EVT_test_fixture\EVT_test_fixture\ArduinoCore\Release\libArduinoCore.a(SoftwareSerial.o)
 .debug_ranges  0x00000408       0x10 C:\Users\kphalak\Documents\Atmel Studio\7.0\EVT_test_fixture\EVT_test_fixture\ArduinoCore\Release\libArduinoCore.a(hooks.o)

.debug_macro
 *(.debug_macro)
OUTPUT(EVT_test_fixture.elf elf32-avr)
LOAD linker stubs
