S01800004556545F746573745F666978747572652E7372656398
S11300000C9470000C9498000C9498000C94400D7F
S11300100C94400D0C94400D0C9498000C94980092
S11300200C9498000C9498000C9498000C949800EC
S11300300C9498000C9498000C9498000C949800DC
S11300400C94BC0A0C9498000C9427090C9459093C
S11300500C9498000C9498000C9498000C949800BC
S11300600C9498000C94980085018E0197019A01D4
S1130070BB01BE01C1010502C801FC010E02280238
S11300800000000800020100000304070000000053
S1130090000000000102040810204080010204084E
S11300A010200102040810200404040404040404BD
S11300B0020202020202030303030303000000001E
S11300C023002600290000000000250028002B0042
S11300D000000000240027002A0049018909680162
S11300E011241FBECFEFD8E0DEBFCDBF13E0A0E0E8
S11300F0B1E0E2E9FEE102C005900D92A431B1073E
S1130100D9F724E0A4E1B3E001C01D92A933B207FA
S1130110E1F710E0CFE6D0E004C02197FE010E9491
S1130120220FCD36D107C9F70E94B7090C943C0FB2
S11301300C9400000E94360C21E0892B09F020E089
S1130140822F0895CF93DF93EC01862F6883798300
S113015021E030E03B832A833D832C8360E00E94CE
S1130160CB0B61E08881DF91CF910C94070CCF9386
S1130170DF93EC0188810E94360C9B838A832C8157
S11301803D818217930729F09D838C8321E0892B7D
S113019009F020E0822FDF91CF91089560E088E09C
S11301A00E94070C60E089E00E94070C60E08AE08E
S11301B00E94070C60E08BE00E94070C61E08CE079
S11301C00C94070C61E088E00E94CB0B61E089E0AD
S11301D00E94CB0B61E08AE00E94CB0B61E08BE0D4
S11301E00E94CB0B61E08CE00E94CB0B0C94CE0000
S11301F0CF92DF92EF92FF920F931F93CF93DF93EF
S11302008C01C1E0D0E06B01770FEE08FF08C01746
S1130210D10794F461E088E00E94070CC701B6019D
S11302200E942B0B60E088E00E94070CC701B60116
S11302300E942B0B2196EBCFDF91CF911F910F9151
S1130240FF90EF90DF90CF9008950F931F93CF937B
S1130250DF93EC018B0160E089E00E94070CB80198
S1130260CE01DF91CF911F910F910C94F8000F9361
S11302701F93CF93DF93EC018B0161E089E00E942F
S1130280070CB801CE01DF91CF911F910F910C940F
S1130290F80020E047E066E080E393E00E94130E5C
S11302A062E070E088E293E00E94A20063E070E004
S11302B082E293E00E94A20064E070E08CE193E0AB
S11302C00E94A20065E070E086E193E00C94A20035
S11302D080E393E00C94BA0D0F931F93CF93DF93B5
S11302E08C01EB016CE780E393E00E94800C6DE2EB
S11302F080E393E00E94800C0C30110508F0C2C02A
S1130300F801EC5CFF4F0C94220F6AE071E080E38B
S113031093E00E94050A6BE171E0B6C06CE271E003
S113032080E393E00E94050A6DE371E0ADC06EE4E2
S113033071E009C0C03187E2D8071CF06CE671E0B7
S113034002C068E771E080E393E00E94050A4AE096
S113035050E0BE0180E393E00E94B50A6EEF80E3B3
S113036093E00E94800C60EC80E393E00E94800C98
S11303706BE571E089C065E871E0E5CF61E971E0A2
S1130380E2CF6EE971E080E393E00E94050AF0CFCA
S11303906FEA71E080E393E00E94050A6EEF80E368
S11303A093E00E94800C63EC80E393E00E94800C55
S11303B060912E0370912F034AE050E080E393E0B4
S11303C00E94B50A60EC71E080E393E00E94050AA4
S11303D060912E0370912F03809106019091070183
S11303E0680F791F4AE050E080E393E0DF91CF91FA
S11303F01F910F910C94B50A65EC71E080E393E0D2
S11304000E94050A66ED71E03FC067EE71E080E38B
S113041093E00E94050A68EF71E036C069E072E07B
S113042080E393E00E94050A4AE050E0BE0180E3C5
S113043093E00E94B50A6EEF80E393E00E94800C83
S113044060EC80E393E00E94800C67E172E01CC0E2
S113045068E272E080E393E00E94050A4AE050E01B
S1130460BE0180E393E00E94B50A6EEF80E393E05F
S11304700E94800C60EC80E393E00E94800C65E3B2
S113048072E002C066E472E080E393E0DF91CF9112
S11304901F910F910C94050A1F93CF93DF938091C2
S11304A014038630F1F5CAE0D0E014E0809114031F
S11304B08630B9F580911603909117030E949A0033
S11304C0882341F02A96C53C89E0D8078CF0C4EC17
S11304D0D9E00EC080912803909129030E949A00CC
S11304E0882391F02A97CA30D10514F4CAE0D0E0E9
S11304F0BE018BE090E00E946C0164E670E080E055
S113050090E00E942B0BD2CF8CE193E00E94B700C5
S1130510882361F210931403D0930701C09306015A
S1130520C5CFDF91CF911F91089580911403863038
S113053031F480911503813011F40C944C02089528
S1130540CF93C4E0809114038330E9F486E193E00F
S11305500E94B700882319F0C0931403F3CF88E2F4
S113056093E00E94B700882369F381E0809300013F
S1130570109214031092150360E070E080E090E0A4
S1130580CF910C946C01CF910895CF938091140373
S1130590823031F460E070E086E090E00E946C010B
S11305A0C4E080910001853009F04BC086E193E0FE
S11305B00E94B700882359F060E08CE00E94070C89
S11305C061E070E085E090E00E94250135C088E29A
S11305D093E00E94B700882359F060E08CE00E9409
S11305E0070C61E070E085E090E00E94370124C0D0
S11305F08CE193E00E94B700882371F061E08CE005
S11306000E94070C83E08093140360E070E087E0AD
S113061090E0CF910C946C0182E293E00E94B700C9
S1130620882351F0C093000160910201709103018D
S113063085E090E00E946C0161E08CE00E94070C70
S1130640B0CFCF9108950F931F93CF93DF93C091B1
S11306500201D091030180911403823029F4BE0178
S113066085E090E00E946C0113E005E080910001B8
S11306708430F1F586E193E00E94B700882349F0C5
S1130680CC59DF4FC13187E2D80784F0C0E1D7E20B
S11306900DC088E293E00E94B700882359F0C45645
S11306A0D109C436D10514F4C4E6D0E0BE0185E016
S11306B090E01BC08CE193E00E94B700882339F0DE
S11306C0D0930301C093020100930001CFCF82E2D3
S11306D093E00E94B700882349F2109300016091CF
S11306E004017091050184E090E00E946C01BECF8A
S11306F0DF91CF911F910F9108950F931F93CF9383
S1130700DF93C0910401D0910501809114038230DC
S113071029F4BE0184E090E00E946C0112E004E040
S1130720809100018330E1F586E193E00E94B700F7
S1130730882341F02A96C53C89E0D8077CF0C4ECB4
S1130740D9E00CC088E293E00E94B700882351F0FE
S11307502A97CA30D10514F4CAE0D0E0BE0184E07F
S113076090E01BC08CE193E00E94B700882339F02D
S1130770D0930501C093040100930001D1CF82E21C
S113078093E00E94B700882359F21093000160910E
S113079006017091070183E090E00E946C01C0CFD4
S11307A0DF91CF911F910F9108950F931F93CF93D2
S11307B0DF93C0910601D091070180911403823028
S11307C029F4BE0183E090E00E946C0111E003E093
S11307D080910001823009F049C080911603909104
S11307E017030E949A00882341F02596C93A81E6AE
S11307F0D8078CF0C8EAD1E60EC080912803909106
S113080029030E949A00882391F02597C530D105C9
S113081014F4C5E0D0E0BE0183E090E00E946C01D6
S113082064E670E080E090E00E942B0BD1CF8CE175
S113083093E00E94B700882339F0D0930701C09356
S1130840060100930001C4CF82E293E00E94B70046
S1130850882309F4BDCF10930001609108017091C1
S1130860090182E090E00E946C01B2CFDF91CF9148
S11308701F910F9108951F93CF93DF93C0910801A7
S1130880D091090180911403823029F4BE0182E0E1
S113089090E00E946C0112E080910001813009F027
S11308A041C086E193E00E94B700882341F062963C
S11308B0C83681E0D80781F4C0E0D0E00DC088E2FA
S11308C093E00E94B700882369F06297CE3E8FEFD1
S11308D0D80711F4C6E5D1E0BE0182E090E00E94A1
S11308E06C01DACF8CE193E00E94B700882339F0E1
S11308F0D0930901C093080110930001CDCF82E287
S113090093E00E94B700882339F2109214031092E6
S1130910150360E070E080E090E0DF91CF911F91DB
S11309200C946C01DF91CF911F9108958091150370
S113093090911403923061F48130F1F70E943B04EA
S11309400E94D5030E947D030E9423030C94C502D8
S11309500895CF9380911403853059F5C6E08091B2
S11309601403853031F586E193E00E94B7008823B3
S113097079F0C09314036AE070E08BE090E00E9489
S11309806C0164E670E080E090E00E942B0BE7CFFE
S113099088E293E00E94B700882309F310921403BD
S11309A01092150360E070E080E090E0CF910C9429
S11309B06C01CF910895809114038130D1F486E1C4
S11309C093E00E94B700882321F082E0809314030F
S11309D0089588E293E00E94B700882361F310929F
S11309E014031092150360E070E080E090E00C9432
S11309F06C0108956CE780E393E00E94800C63E946
S1130A0080E393E00E94800C6CE780E393E00E9413
S1130A10800C61EB80E393E00E94800C6CE780E340
S1130A2093E00E94800C6FEC80E393E00C94800CC4
S1130A3026E040E855E260E070E08FE493E00E9435
S1130A40BF0867E572E08FE493E00E94120A40E871
S1130A5055E260E070E080E393E00E943E0E0E9465
S1130A60FA0460E070E080E090E00E946C010C9475
S1130A70E200CF93DF93EC016CE780E393E00E9404
S1130A80800C6DE280E393E00E94800CC230D105BB
S1130A9071F0C330D105A1F0219701F565E672E04C
S1130AA080E393E00E94050A66E772E011C067E8FC
S1130AB072E080E393E00E94050A68E972E008C0EE
S1130AC069EA72E080E393E00E94050A6AEB72E04F
S1130AD080E393E0DF91CF910C94050ADF91CF91ED
S1130AE00895CF93C1E080911403811142C086E13F
S1130AF093E00E94B700882361F06BEC72E08FE40E
S1130B0093E00E94120A809115038F5F843089F468
S1130B1012C088E293E00E94B700882391F060ED50
S1130B2072E08FE493E00E94120A809115038150D1
S1130B3011F0809315038091150390E00E9439050C
S1130B40D2CF8CE193E00E94B700882361F269ED73
S1130B5072E08FE493E00E94120A809115038111E0
S1130B60C093140360E070E081E090E00E946C01A7
S1130B70BACFCF910895EF92FF920F931F93CF9323
S1130B80DF9360E08CE00E94070CC1E0D0E0EE242B
S1130B90E39485E0F82E80911403843009F0BCC0FE
S1130BA080910101009104011091050160910801F7
S1130BB0709109018823A1F0072E000C880B990B72
S1130BC00E945E0726E636E646EE5FE30E94B40620
S1130BD00E942607DC01CB01B8010E94250113C045
S1130BE0072E000C880B990B0E945E0726E636E65A
S1130BF046EE5FE30E94B4060E942607DC01CB01A7
S1130C00B8010E9437016EEF80E393E00E94800CEC
S1130C1063EC80E393E00E94800C60912E0370915A
S1130C202F036C0F7D1F4AE050E080E393E00E94A5
S1130C30B50A60EC71E080E393E00E94050A6091DC
S1130C4006017091070180912E0390912F03680F84
S1130C50791F4AE050E080E393E00E94B50A809156
S1130C6001018E25809301016091020170910301BD
S1130C70072E000C880B990B0E942B0B80911C03F0
S1130C8090911D030E949A0081110FC0809122034C
S1130C90909123030E949A00882321F160E070E080
S1130CA089E090E00E946C010DC060E070E089E092
S1130CB090E00E946C018CE193E00E94B7008823CD
S1130CC0D1F3E4CF86E193E00E94B7008823D1F307
S1130CD060912E0370912F036C0F7D1F88E090E0CC
S1130CE00E946C0121968091060190910701C8171A
S1130CF0D90709F050CFF092140360912E0370913C
S1130D002F036C0F7D1F70932F0360932E038AE0D3
S1130D1090E00E946C013FCFDF91CF911F910F9122
S1130D20FF90EF90089580911403843071F48091C2
S1130D301503813051F460912E0370912F0388E0E4
S1130D4090E00E946C010C94BB0508950E9471050B
S1130D500E94DB040E9496040E94A0020E94930653
S1130D600E94A9040C9495020E94C8060C94B00732
S1130D700E94A90758F00E94A20740F029F45F3F9F
S1130D8029F00C94990751110C94E4070C949F07D3
S1130D900E94C10768F39923B1F3552391F3951B7E
S1130DA0550BBB27AA2762177307840738F09F5F88
S1130DB05F4F220F331F441FAA1FA9F335D00E2EF5
S1130DC03AF0E0E832D091505040E695001CCAF762
S1130DD02BD0FE2F29D0660F771F881FBB1F261725
S1130DE037074807AB07B0E809F0BB0B802DBF01FC
S1130DF0FF2793585F4F3AF09E3F510578F00C94CB
S1130E0099070C94E4075F3FE4F3983ED4F3869586
S1130E1077956795B795F7959F5FC9F7880F911DEB
S1130E209695879597F90895E1E0660F771F881FD7
S1130E30BB1F621773078407BA0720F0621B730B8A
S1130E40840BBA0BEE1F88F7E09508950E942D07D6
S1130E506894B1110C94E40708950E94C90788F0BE
S1130E609F5798F0B92F9927B751B0F0E1F0660F6A
S1130E70771F881F991F1AF0BA95C9F714C0B130AB
S1130E8091F00E94E307B1E008950C94E307672F03
S1130E90782F8827B85F39F0B93FCCF386957795DA
S1130EA06795B395D9F73EF49095809570956195C3
S1130EB07F4F8F4F9F4F0895E89409C097FB3EF4EE
S1130EC090958095709561957F4F8F4F9F4F992393
S1130ED0A9F0F92F96E9BB279395F6958795779511
S1130EE06795B795F111F8CFFAF4BB0F11F460FFD1
S1130EF01BC06F5F7F4F8F4F9F4F16C0882311F029
S1130F0096E911C0772321F09EE8872F762F05C03C
S1130F10662371F096E8862F70E060E02AF09A95D7
S1130F20660F771F881FDAF7880F9695879597F9CC
S1130F30089597F99F6780E870E060E008959FEF57
S1130F4080EC089500240A9416161706180609065C
S1130F50089500240A94121613061406050608952B
S1130F60092E0394000C11F4882352F0BB0F40F4B3
S1130F70BF2B11F460FF04C06F5F7F4F8F4F9F4FF3
S1130F80089557FD9058440F551F59F05F3F71F075
S1130F904795880F97FB991F61F09F3F79F08795DC
S1130FA00895121613061406551FF2CF4695F1DF65
S1130FB008C0161617061806991FF1CF86957105F5
S1130FC0610508940895E894BB2766277727CB0129
S1130FD097F90895FC01918D228D892F90E0805C12
S1130FE09F4F821B91098F7399270895FC01918D5E
S1130FF0828D981731F0828DE80FF11D858D90E078
S113100008958FEF9FEF0895FC01918D828D9817BD
S113101061F0828DDF01A80FB11D5D968C91928DD8
S11310209F5F9F73928F90E008958FEF9FEF0895D5
S1131030FC01538D448D252F30E0842F90E0821BDA
S1131040930B541710F0CF960895019708958FE7E6
S113105099E0892B49F080E090E0892B29F00E94E7
S11310607F0981110C9400000895FC01848DDF0137
S1131070A80FB11DA35ABF4F2C91848D90E0019607
S11310808F739927848FA689B7892C93A089B189F6
S11310908C9180648C93938D848D981306C0028800
S11310A0F389E02D80818F7D80830895EF92FF92F4
S11310B00F931F93CF93DF93EC0181E0888F9B8D77
S11310C08C8D981305C0E889F989808185FD24C039
S11310D0F62E0B8D10E00F5F1F4F0F731127E02EBC
S11310E08C8DE8120CC00FB607FCFACFE889F98999
S11310F0808185FFF5CFCE010E943508F1CF8B8D1D
S1131100FE01E80FF11DE35AFF4FF0820B8FEA89CD
S1131110FB898081806207C0EE89FF896083E8894A
S1131120F98980818064808381E090E0DF91CF91B0
S11311301F910F91FF90EF900895CF93DF93EC01EF
S1131140888D8823C9F0EA89FB89808185FD05C0E3
S1131150A889B9898C9186FD0FC00FB607FCF5CF1D
S1131160808185FFF2CFA889B9898C9185FFEDCF65
S1131170CE010E943508E7CFDF91CF910895CF9239
S1131180DF92EF92FF921F93CF93DF93EC016A01FA
S11311907B01122FE889F98982E080834115514E41
S11311A061057105B1F060E079E08DE390E0A7019D
S11311B096010E94E10EDA01C9010197A109B10962
S11311C0B695A795979587959C01211580E13807D9
S11311D0A8F0E889F989108260E874E88EE190E06B
S11311E0A70196010E94E10EDA01C9010197A10944
S11311F0B109B695A795979587959C01EC85FD85D2
S11312003083EE85FF852083188EEC89FD89108359
S1131210EA89FB89808180618083EA89FB898081F6
S113122088608083EA89FB89808180688083EA8979
S1131230FB8980818F7D8083DF91CF911F91FF9007
S1131240EF90DF90CF90089580E090E008951F9292
S11312500F920FB60F9211242F938F939F93EF93B6
S1131260FF93E0915F03F09160038081E091650357
S1131270F091660382FD12C09081809168038F5FB4
S11312808F7320916903821751F0E0916803F0E0B5
S1131290E15BFC4F958F8093680301C08081FF91CF
S11312A0EF919F918F912F910F900FBE0F901F90F0
S11312B018951F920F920FB60F9211242F933F93FC
S11312C04F935F936F937F938F939F93AF93BF934A
S11312D0EF93FF938FE493E00E943508FF91EF9121
S11312E0BF91AF919F918F917F916F915F914F913A
S11312F03F912F910F900FBE0F901F9018958FE480
S113130093E00E94EA0721E0892B09F420E0822F70
S11313100895EFE4F3E01382128288EE93E0A0E0F4
S1131320B0E084839583A683B78384EE92E09183AF
S1131330808385EC90E09587848784EC90E09787A0
S1131340868780EC90E0918B808B81EC90E0938B8E
S1131350828B82EC90E0958B848B86EC90E0978B6B
S1131360868B118E128E138E148E089508950E940A
S1131370670B0E94B6090E941805C7E2D8E00E94D4
S1131380A6062097E1F30E942708F9CFCF92DF92B7
S1131390EF92FF920F931F93CF93DF936C017A0127
S11313A08B01C0E0D0E0CE15DF0581F0D8016D914E
S11313B08D01D601ED91FC910190F081E02DC601E3
S11313C00995892B11F02196EECF7E01C701DF919B
S11313D0CF911F910F91FF90EF90DF90CF900895E0
S11313E06115710579F0FB0101900020E9F731974F
S11313F0AF01461B570BDC01ED91FC910280F38198
S1131400E02D099480E090E008950C94F009DC014B
S1131410ED91FC910190F081E02D099462EF72E06E
S11314200C94F0090F931F93CF93DF93EC010E9468
S1131430F0098C01CE010E940E0A800F911FDF91EA
S1131440CF911F910F9108958F929F92AF92BF9267
S1131450EF92FF920F931F93CF93DF93CDB7DEB735
S1131460A1970FB6F894DEBF0FBECDBF7C01FA0181
S1131470CB0119A2223008F42AE08E010F5D1F4F20
S1131480822E912CA12CB12CBF01A50194010E94A4
S1131490E10EF901CA01015011096A3010F4605DCE
S11314A001C0695CD8016C93232B242B252B61F795
S11314B0B801C7010E94F009A1960FB6F894DEBFE7
S11314C00FBECDBFDF91CF911F910F91FF90EF9091
S11314D0BF90AF909F908F900895CF92DF92EF923C
S11314E0FF920F931F93CF93DF932115310581F45E
S11314F0DC01ED91FC910190F081E02D642FDF91EE
S1131500CF911F910F91FF90EF90DF90CF900994AE
S11315102A30310501F577FF1DC06A017B01EC011A
S11315206DE20E94070A8C0144275527BA014C1921
S11315305D096E097F092AE0CE010E94240A800F0A
S1131540911FDF91CF911F910F91FF90EF90DF904A
S1131550CF9008952AE0DF91CF911F910F91FF90D2
S1131560EF90DF90CF900C94240A9A01AB01770F8F
S1131570660B770B0C946D0A1F920F920FB60F92A5
S113158011242F933F938F939F93AF93BF93809195
S1131590ED039091EE03A091EF03B091F00330912D
S11315A0EC0323E0230F2D3720F40196A11DB11D78
S11315B005C026E8230F0296A11DB11D2093EC035C
S11315C08093ED039093EE03A093EF03B093F003A5
S11315D08091F1039091F203A091F303B091F4038D
S11315E00196A11DB11D8093F1039093F203A09382
S11315F0F303B093F403BF91AF919F918F913F9107
S11316002F910F900FBE0F901F9018953FB7F8942D
S11316108091F1039091F203A091F303B091F4034C
S113162026B5A89B05C02F3F19F00196A11DB11D39
S11316303FBFBA2FA92F982F8827820F911DA11D74
S1131640B11DBC01CD0142E0660F771F881F991FB1
S11316504A95D1F708958F929F92AF92BF92CF92FD
S1131660DF92EF92FF926B017C010E94060B4B010B
S11316705C01C114D104E104F10401F10E94CC0E17
S11316800E94060BDC01CB0188199909AA09BB0940
S1131690883E9340A105B10560F321E0C21AD10848
S11316A0E108F10888EE880E83E0981EA11CB11CA5
S11316B0C114D104E104F10419F7DBCFFF90EF90DA
S11316C0DF90CF90BF90AF909F908F9008957894C3
S11316D084B5826084BD84B5816084BD85B5826033
S11316E085BD85B5816085BDEEE6F0E080818160D1
S11316F08083E1E8F0E010828081826080838081D1
S113170081608083E0E8F0E0808181608083E1EBA8
S1131710F0E0808184608083E0EBF0E08081816090
S11317208083EAE7F0E08081846080838081826046
S1131730808380818160808380818068808310922F
S1131740C1000895833081F028F4813099F082300B
S1131750A1F008958730A9F08830B9F08430D1F42D
S1131760809180008F7D03C0809180008F7780936B
S11317708000089584B58F7702C084B58F7D84BDC1
S113178008958091B0008F7703C08091B0008F7D61
S11317908093B0000895CF93DF9390E0FC01EC5662
S11317A0FF4F2491FC01E855FF4F8491882361F198
S11317B090E0880F991FFC01E053FF4FC591D4912D
S11317C0FC01EA53FF4FA591B491611109C09FB781
S11317D0F8948881209582238883EC912E230BC072
S11317E0623061F49FB7F8948881322F3095832357
S11317F08883EC912E2B2C939FBF06C08FB7F8944F
S1131800E8812E2B28838FBFDF91CF9108951F93FA
S1131810CF93DF93282F30E0F901E058FF4F8491F4
S1131820F901EC56FF4FD491F901E855FF4FC491EB
S1131830CC23C1F0162F81110E94A20BEC2FF0E0F3
S1131840EE0FFF1FEA53FF4FA591B4919FB7F89491
S1131850111104C08C91D095D82302C0EC91DE2BD9
S1131860DC939FBFDF91CF911F910895CF93DF93B6
S1131870282F30E0F901E058FF4F8491F901EC562C
S1131880FF4FD491F901E855FF4FC491CC2391F057
S113189081110E94A20BEC2FF0E0EE0FFF1FE45425
S11318A0FF4FA591B491EC91ED2381E090E021F4F8
S11318B080E002C080E090E0DF91CF910895209114
S11318C037043091380428173907B9F49091F50397
S11318D08091F603981789F0E091F503F0E0E95060
S11318E0FC4F80812091F50330E02F5F3F4F2F7331
S11318F033272093F50390E008958FEF9FEF089529
S11319001F93CF93DF93DC015C968D919C915D973F
S1131910009739F421E030E013963C932E9312970C
S11319203BC05196ED91FC91529750962C91509753
S1131930322F30951FB75E964C915E97742F72705C
S113194041FD6095F8944081772311F0422B01C04A
S113195043234083EC012197F1F748E0508160FF75
S113196002C0522B01C053235083EC012197F1F79D
S11319706695415099F78081772319F083238083FA
S113198002C0282B20831FBF5C968D919C915D978C
S11319900197F1F781E090E0DF91CF911F910895D5
S11319A0089520913704309138042817390771F4C9
S11319B09091F5038091F603981741F0E091F503B7
S11319C0F0E0E950FC4F808190E008958FEF9FEFA5
S11319D0089520913704309138042817390771F499
S11319E08091F6032091F50390E0805C9F4F821B69
S11319F0910960E470E00E94CD0E089580E090E0CB
S1131A000895E0913704F0913804E817F90769F470
S1131A10A389B4899C918589809589238C9310929C
S1131A2038041092370481E0089580E00895CF933C
S1131A30DF93EC018A8D9B8D892BF1F08091370423
S1131A4090913804C817D907B9F0009711F00E9493
S1131A50010D8E8D8E7F8E8F1092F6031092F503FA
S1131A60D0933804C0933704EB89FC8990818D8925
S1131A70892B808381E001C080E0DF91CF910895BC
S1131A801F920F920FB60F9211242F933F934F93EF
S1131A905F936F937F938F939F93AF93BF93EF93D2
S1131AA0FF93E0913704F0913804309709F451C062
S1131AB0968DA685B785858591FF04C09C91892361
S1131AC029F447C09C91892309F043C0A389B489B0
S1131AD09C918589809589238C9386899789019720
S1131AE0F1F7608D718DA685B785558538E020E0C6
S1131AF0CB010197F1F7822F90E095958795282FD8
S1131B004C91452309F02068315091F7868D81FD71
S1131B1020958091F60390E001968F739927309178
S1131B20F503381749F0A091F603B0E0A950BC4F73
S1131B302C938093F60303C0868D8160868F828DFB
S1131B40938D0197F1F7A389B4899C918589892B99
S1131B508C93FF91EF91BF91AF919F918F917F9162
S1131B606F915F914F913F912F910F900FBE0F9006
S1131B701F90189525E033E0FC01318320830C94F9
S1131B80010D1F93CF93DF93EC01162F6E8D669595
S1131B90617081E06827812F0E94070C61E0812F2A
S1131BA00E94CB0B812F90E0FC01EC56FF4FE49197
S1131BB0E88BFC01E855FF4FE491F0E0EE0FFF1FC6
S1131BC0EA53FF4F859194919A8B898BDF91CF9142
S1131BD01F9108951F93CF93DF93EC01162F60E0BC
S1131BE0812F0E94CB0B8E8D81FD04C061E0812F7B
S1131BF00E94070C1C87812F90E0FC01EC56FF4FDC
S1131C00E491ED87FC01E855FF4FE491F0E0EE0F1D
S1131C10FF1FE454FF4F859194919F878E87DF9136
S1131C20CF911F9108951F93CF93DF93EC01162F4B
S1131C301B821A8288EE93E0A0E0B0E08C839D833F
S1131C40AE83BF8385E093E0998388831F8A1E8ACD
S1131C50198E188E1B8E1A8E1D8E1C8E8E8D8E7F65
S1131C6020FB81F98E8F642FCE010E94C10D612F5C
S1131C70CE01DF91CF911F910C94EA0DCF93DF93A6
S1131C80EC019A01AB011B8E1A8E198E188E1F8AD5
S1131C901E8A60E079E08DE390E00E94030FF90171
S1131CA02430310518F0C901039702C081E090E0A7
S1131CB09D8F8C8F6C85663108F069C0C90196953B
S1131CC087958431910510F0439702C081E090E03C
S1131CD09F8B8E8B369718F0C901059702C081E05F
S1131CE090E0998F888FC901880F991F280F391F99
S1131CF036952795369527952D30310518F02C50BB
S1131D00310902C021E030E03B8F2A8F90916800B6
S1131D10683050F021E06E3008F420E081E001C02A
S1131D20880F2A95EAF701C084E0892B8093680024
S1131D309C85983038F09E3040F0963148F020E091
S1131D4030E008C02DE630E005C02BE630E002C0EC
S1131D502CE630E03C8B2B8B983030F481E001C0D2
S1131D60880F9A95EAF70EC0292F30E09E3018F4B8
S1131D702850310902C02E50310981E001C0880F7A
S1131D802A95EAF78D8B8C8D9D8D0197F1F7CE0105
S1131D90DF91CF910C94170D089597FB072E16F43D
S1131DA0009407D077FD09D00E94280F07FC05D0C6
S1131DB03EF4909581959F4F0895709561957F4F5E
S1131DC00895A1E21A2EAA1BBB1BFD010DC0AA1F78
S1131DD0BB1FEE1FFF1FA217B307E407F50720F090
S1131DE0A21BB30BE40BF50B661F771F881F991F0B
S1131DF01A9469F760957095809590959B01AC0154
S1131E00BD01CF010895052E97FB1EF400940E9496
S1131E101A0F57FD07D00E94E10E07FC03D04EF4C1
S1131E200C941A0F50954095309521953F4F4F4F84
S1131E305F4F089590958095709561957F4F8F4F72
S1131E409F4F0895EE0FFF1F0590F491E02D099424
S1131E50AA1BBB1B51E107C0AA1FBB1FA617B707CC
S1131E6010F0A61BB70B881F991F5A95A9F78095E8
S1131E709095BC01CD01089510E0CFE6D0E004C0F8
S1131E80FE010E94220F2196C037D107C9F7F894AA
S1051E90FFCF7E
S1131E920101D0070A003200B40053656C65637413
S1131EA220746865205465737420003C202020202F
S1131EB2202020202020202020203E002053657452
S1131EC220506172616D65746572732000455849D2
S1131ED254202020202020202020534554005374D5
S1131EE2657020416E676C653A20003C20204241B7
S1131EF2434B2020204F4B2020203E004E756D2066
S1131F024379636C65733A004E756D204379636C53
S1131F1265733A20005374657020576169743A20DE
S1131F22004379636C6520576169743A2000204943
S1131F326E69742020506F736974696F6E20004655
S1131F42696E6973686564204379636C65733A00EA
S1131F52206F662000202020546573742050617520
S1131F6273656420200020202020202020202020AF
S1131F72524553554D4500202053746172742020FC
S1131F82546573743F2020004E4F202020202020CF
S1131F922020202020594553004379636C65732027
S1131FA2446F6E65203A0045584954202020202071
S1131FB22020202041444400416464204379636C1E
S1131FC26573203A003C2020202020202020204F2E
S1131FD24B2020203E0020556E6B6E6F776E2020C2
S1131FE24572726F722000455654205465737420F2
S1131FF2436F6465002020204C6966652054657334
S113200274202020200020202020202020204F4B3C
S113201220202020203E00202020537472657373F8
S113202220546573742020003C202020202020208E
S11320324F4B20202020203E00202050756E6374D8
S1132042757265205465737420003C202020202082
S113205220204F4B202020202020004E6578740041
S113206262746E5F707265760053656C65637400AA
S1132072000000005608C60918089D08EA0704086B
S1132082F6070D0A006E616E00696E66006F766671
S11320920000000000800CC6092409D00CE90C5F82
S10720A20CD10C004D
S9030000FC
